{
  "_format": "hh-sol-artifact-1",
  "contractName": "GammaPoolFactory",
  "sourceName": "contracts/GammaPoolFactory.sol",
  "abi": [
    {
      "inputs": [
        {
          "internalType": "address",
          "name": "_feeToSetter",
          "type": "address"
        }
      ],
      "stateMutability": "nonpayable",
      "type": "constructor"
    },
    {
      "anonymous": false,
      "inputs": [
        {
          "indexed": true,
          "internalType": "address",
          "name": "pool",
          "type": "address"
        },
        {
          "indexed": true,
          "internalType": "address",
          "name": "cfmm",
          "type": "address"
        },
        {
          "indexed": true,
          "internalType": "uint24",
          "name": "protocolId",
          "type": "uint24"
        },
        {
          "indexed": false,
          "internalType": "address",
          "name": "protocol",
          "type": "address"
        },
        {
          "indexed": false,
          "internalType": "uint256",
          "name": "count",
          "type": "uint256"
        }
      ],
      "name": "PoolCreated",
      "type": "event"
    },
    {
      "inputs": [
        {
          "internalType": "address",
          "name": "protocol",
          "type": "address"
        }
      ],
      "name": "addProtocol",
      "outputs": [],
      "stateMutability": "nonpayable",
      "type": "function"
    },
    {
      "inputs": [
        {
          "internalType": "uint256",
          "name": "",
          "type": "uint256"
        }
      ],
      "name": "allPools",
      "outputs": [
        {
          "internalType": "address",
          "name": "",
          "type": "address"
        }
      ],
      "stateMutability": "view",
      "type": "function"
    },
    {
      "inputs": [],
      "name": "allPoolsLength",
      "outputs": [
        {
          "internalType": "uint256",
          "name": "",
          "type": "uint256"
        }
      ],
      "stateMutability": "view",
      "type": "function"
    },
    {
      "inputs": [
        {
          "components": [
            {
              "internalType": "address",
              "name": "cfmm",
              "type": "address"
            },
            {
              "internalType": "uint24",
              "name": "protocol",
              "type": "uint24"
            },
            {
              "internalType": "address[]",
              "name": "tokens",
              "type": "address[]"
            }
          ],
          "internalType": "struct IGammaPoolFactory.CreatePoolParams",
          "name": "params",
          "type": "tuple"
        }
      ],
      "name": "createPool",
      "outputs": [
        {
          "internalType": "address",
          "name": "pool",
          "type": "address"
        }
      ],
      "stateMutability": "nonpayable",
      "type": "function"
    },
    {
      "inputs": [],
      "name": "deployer",
      "outputs": [
        {
          "internalType": "address",
          "name": "",
          "type": "address"
        }
      ],
      "stateMutability": "view",
      "type": "function"
    },
    {
      "inputs": [],
      "name": "fee",
      "outputs": [
        {
          "internalType": "uint256",
          "name": "",
          "type": "uint256"
        }
      ],
      "stateMutability": "view",
      "type": "function"
    },
    {
      "inputs": [],
      "name": "feeInfo",
      "outputs": [
        {
          "internalType": "address",
          "name": "_feeTo",
          "type": "address"
        },
        {
          "internalType": "uint256",
          "name": "_fee",
          "type": "uint256"
        }
      ],
      "stateMutability": "view",
      "type": "function"
    },
    {
      "inputs": [],
      "name": "feeTo",
      "outputs": [
        {
          "internalType": "address",
          "name": "",
          "type": "address"
        }
      ],
      "stateMutability": "view",
      "type": "function"
    },
    {
      "inputs": [],
      "name": "feeToSetter",
      "outputs": [
        {
          "internalType": "address",
          "name": "",
          "type": "address"
        }
      ],
      "stateMutability": "view",
      "type": "function"
    },
    {
      "inputs": [
        {
          "internalType": "bytes32",
          "name": "",
          "type": "bytes32"
        }
      ],
      "name": "getPool",
      "outputs": [
        {
          "internalType": "address",
          "name": "",
          "type": "address"
        }
      ],
      "stateMutability": "view",
      "type": "function"
    },
    {
      "inputs": [
        {
          "internalType": "uint24",
          "name": "",
          "type": "uint24"
        }
      ],
      "name": "getProtocol",
      "outputs": [
        {
          "internalType": "address",
          "name": "",
          "type": "address"
        }
      ],
      "stateMutability": "view",
      "type": "function"
    },
    {
      "inputs": [
        {
          "internalType": "uint24",
          "name": "",
          "type": "uint24"
        }
      ],
      "name": "isProtocolRestricted",
      "outputs": [
        {
          "internalType": "bool",
          "name": "",
          "type": "bool"
        }
      ],
      "stateMutability": "view",
      "type": "function"
    },
    {
      "inputs": [],
      "name": "owner",
      "outputs": [
        {
          "internalType": "address",
          "name": "",
          "type": "address"
        }
      ],
      "stateMutability": "view",
      "type": "function"
    },
    {
      "inputs": [],
      "name": "parameters",
      "outputs": [
        {
          "internalType": "address",
          "name": "_cfmm",
          "type": "address"
        },
        {
          "internalType": "uint24",
          "name": "_protocolId",
          "type": "uint24"
        },
        {
          "internalType": "address[]",
          "name": "_tokens",
          "type": "address[]"
        },
        {
          "internalType": "address",
          "name": "_protocol",
          "type": "address"
        }
      ],
      "stateMutability": "view",
      "type": "function"
    },
    {
      "inputs": [
        {
          "internalType": "uint24",
          "name": "protocol",
          "type": "uint24"
        }
      ],
      "name": "removeProtocol",
      "outputs": [],
      "stateMutability": "nonpayable",
      "type": "function"
    },
    {
      "inputs": [
        {
          "internalType": "uint256",
          "name": "_fee",
          "type": "uint256"
        }
      ],
      "name": "setFee",
      "outputs": [],
      "stateMutability": "nonpayable",
      "type": "function"
    },
    {
      "inputs": [
        {
          "internalType": "address",
          "name": "_feeTo",
          "type": "address"
        }
      ],
      "name": "setFeeTo",
      "outputs": [],
      "stateMutability": "nonpayable",
      "type": "function"
    },
    {
      "inputs": [
        {
          "internalType": "address",
          "name": "_feeToSetter",
          "type": "address"
        }
      ],
      "name": "setFeeToSetter",
      "outputs": [],
      "stateMutability": "nonpayable",
      "type": "function"
    },
    {
      "inputs": [
        {
          "internalType": "uint24",
          "name": "protocol",
          "type": "uint24"
        },
        {
          "internalType": "bool",
          "name": "isRestricted",
          "type": "bool"
        }
      ],
      "name": "setIsProtocolRestricted",
      "outputs": [],
      "stateMutability": "nonpayable",
      "type": "function"
    }
  ],
  "bytecode": "0x608060405266b1a2bc2ec500006003553480156200001c57600080fd5b50604051620086e1380380620086e183398181016040528101906200004291906200019c565b806000806101000a81548173ffffffffffffffffffffffffffffffffffffffff021916908373ffffffffffffffffffffffffffffffffffffffff16021790555080600260006101000a81548173ffffffffffffffffffffffffffffffffffffffff021916908373ffffffffffffffffffffffffffffffffffffffff16021790555033600160006101000a81548173ffffffffffffffffffffffffffffffffffffffff021916908373ffffffffffffffffffffffffffffffffffffffff160217905550604051620001129062000177565b604051809103906000f0801580156200012f573d6000803e3d6000fd5b50600b60006101000a81548173ffffffffffffffffffffffffffffffffffffffff021916908373ffffffffffffffffffffffffffffffffffffffff1602179055505062000216565b615ea7806200283a83390190565b6000815190506200019681620001fc565b92915050565b600060208284031215620001af57600080fd5b6000620001bf8482850162000185565b91505092915050565b6000620001d582620001dc565b9050919050565b600073ffffffffffffffffffffffffffffffffffffffff82169050919050565b6200020781620001c8565b81146200021357600080fd5b50565b61261480620002266000396000f3fe608060405234801561001057600080fd5b50600436106101215760003560e01c80639ca19f34116100ad578063ddca3f4311610071578063ddca3f43146102fa578063efde4e6414610318578063f46901ed14610336578063f4d7707a14610352578063f6c009271461038257610121565b80639ca19f3414610244578063a2e74af614610260578063c06b3b541461027c578063cde586e2146102ac578063d5f39488146102dc57610121565b8063771d4c28116100f4578063771d4c28146101ae5780637cb1e553146101ca57806389035730146101e65780638da5cb5b14610207578063995b5aae1461022557610121565b8063017e7e5814610126578063094b74151461014457806341d1de971461016257806369fe0e2d14610192575b600080fd5b61012e6103b2565b60405161013b9190611f30565b60405180910390f35b61014c6103d8565b6040516101599190611f30565b60405180910390f35b61017c60048036038101906101779190611bcb565b6103fc565b6040516101899190611f30565b60405180910390f35b6101ac60048036038101906101a79190611bcb565b61043b565b005b6101c860048036038101906101c39190611a40565b6104d3565b005b6101e460048036038101906101df9190611b3d565b61082d565b005b6101ee61091d565b6040516101fe9493929190611f74565b60405180910390f35b61020f610a1d565b60405161021c9190611f30565b60405180910390f35b61022d610a43565b60405161023b929190611fc0565b60405180910390f35b61025e60048036038101906102599190611b8f565b610a74565b005b61027a60048036038101906102759190611a40565b610b3d565b005b61029660048036038101906102919190611b3d565b610c0e565b6040516102a39190611f30565b60405180910390f35b6102c660048036038101906102c19190611b3d565b610c41565b6040516102d3919061201b565b60405180910390f35b6102e4610c61565b6040516102f19190611f30565b60405180910390f35b610302610c87565b60405161030f9190612153565b60405180910390f35b610320610c8d565b60405161032d9190612153565b60405180910390f35b610350600480360381019061034b9190611a40565b610c9a565b005b61036c60048036038101906103679190611afc565b610d6c565b6040516103799190611f30565b60405180910390f35b61039c60048036038101906103979190611ad3565b611603565b6040516103a99190611f30565b60405180910390f35b600260009054906101000a900473ffffffffffffffffffffffffffffffffffffffff1681565b60008054906101000a900473ffffffffffffffffffffffffffffffffffffffff1681565b6007818154811061040c57600080fd5b906000526020600020016000915054906101000a900473ffffffffffffffffffffffffffffffffffffffff1681565b60008054906101000a900473ffffffffffffffffffffffffffffffffffffffff1673ffffffffffffffffffffffffffffffffffffffff163373ffffffffffffffffffffffffffffffffffffffff16146104c9576040517f08c379a00000000000000000000000000000000000000000000000000000000081526004016104c090612093565b60405180910390fd5b8060038190555050565b600160009054906101000a900473ffffffffffffffffffffffffffffffffffffffff1673ffffffffffffffffffffffffffffffffffffffff163373ffffffffffffffffffffffffffffffffffffffff1614610563576040517f08c379a000000000000000000000000000000000000000000000000000000000815260040161055a90612093565b60405180910390fd5b60008173ffffffffffffffffffffffffffffffffffffffff16638ce744266040518163ffffffff1660e01b815260040160206040518083038186803b1580156105ab57600080fd5b505afa1580156105bf573d6000803e3d6000fd5b505050506040513d601f19601f820116820180604052508101906105e39190611b66565b62ffffff1611610628576040517f08c379a000000000000000000000000000000000000000000000000000000000815260040161061f906120f3565b60405180910390fd5b600073ffffffffffffffffffffffffffffffffffffffff16600460008373ffffffffffffffffffffffffffffffffffffffff16638ce744266040518163ffffffff1660e01b815260040160206040518083038186803b15801561068a57600080fd5b505afa15801561069e573d6000803e3d6000fd5b505050506040513d601f19601f820116820180604052508101906106c29190611b66565b62ffffff1662ffffff16815260200190815260200160002060009054906101000a900473ffffffffffffffffffffffffffffffffffffffff1673ffffffffffffffffffffffffffffffffffffffff1614610751576040517f08c379a0000000000000000000000000000000000000000000000000000000008152600401610748906120b3565b60405180910390fd5b80600460008373ffffffffffffffffffffffffffffffffffffffff16638ce744266040518163ffffffff1660e01b815260040160206040518083038186803b15801561079c57600080fd5b505afa1580156107b0573d6000803e3d6000fd5b505050506040513d601f19601f820116820180604052508101906107d49190611b66565b62ffffff1662ffffff16815260200190815260200160002060006101000a81548173ffffffffffffffffffffffffffffffffffffffff021916908373ffffffffffffffffffffffffffffffffffffffff16021790555050565b600160009054906101000a900473ffffffffffffffffffffffffffffffffffffffff1673ffffffffffffffffffffffffffffffffffffffff163373ffffffffffffffffffffffffffffffffffffffff16146108bd576040517f08c379a00000000000000000000000000000000000000000000000000000000081526004016108b490612093565b60405180910390fd5b6000600460008362ffffff1662ffffff16815260200190815260200160002060006101000a81548173ffffffffffffffffffffffffffffffffffffffff021916908373ffffffffffffffffffffffffffffffffffffffff16021790555050565b60008060606000600860000160009054906101000a900473ffffffffffffffffffffffffffffffffffffffff169350600860000160149054906101000a900462ffffff16925060086001018054806020026020016040519081016040528092919081815260200182805480156109e857602002820191906000526020600020905b8160009054906101000a900473ffffffffffffffffffffffffffffffffffffffff1673ffffffffffffffffffffffffffffffffffffffff168152602001906001019080831161099e575b50505050509150600860020160009054906101000a900473ffffffffffffffffffffffffffffffffffffffff16905090919293565b600160009054906101000a900473ffffffffffffffffffffffffffffffffffffffff1681565b600080600260009054906101000a900473ffffffffffffffffffffffffffffffffffffffff16915060035490509091565b600160009054906101000a900473ffffffffffffffffffffffffffffffffffffffff1673ffffffffffffffffffffffffffffffffffffffff163373ffffffffffffffffffffffffffffffffffffffff1614610b04576040517f08c379a0000000000000000000000000000000000000000000000000000000008152600401610afb90612093565b60405180910390fd5b80600660008462ffffff1662ffffff16815260200190815260200160002060006101000a81548160ff0219169083151502179055505050565b60008054906101000a900473ffffffffffffffffffffffffffffffffffffffff1673ffffffffffffffffffffffffffffffffffffffff163373ffffffffffffffffffffffffffffffffffffffff1614610bcb576040517f08c379a0000000000000000000000000000000000000000000000000000000008152600401610bc290612093565b60405180910390fd5b806000806101000a81548173ffffffffffffffffffffffffffffffffffffffff021916908373ffffffffffffffffffffffffffffffffffffffff16021790555050565b60046020528060005260406000206000915054906101000a900473ffffffffffffffffffffffffffffffffffffffff1681565b60066020528060005260406000206000915054906101000a900460ff1681565b600b60009054906101000a900473ffffffffffffffffffffffffffffffffffffffff1681565b60035481565b6000600780549050905090565b60008054906101000a900473ffffffffffffffffffffffffffffffffffffffff1673ffffffffffffffffffffffffffffffffffffffff163373ffffffffffffffffffffffffffffffffffffffff1614610d28576040517f08c379a0000000000000000000000000000000000000000000000000000000008152600401610d1f90612093565b60405180910390fd5b80600260006101000a81548173ffffffffffffffffffffffffffffffffffffffff021916908373ffffffffffffffffffffffffffffffffffffffff16021790555050565b600080826020016020810190610d829190611b3d565b9050600073ffffffffffffffffffffffffffffffffffffffff16600460008362ffffff1662ffffff16815260200190815260200160002060009054906101000a900473ffffffffffffffffffffffffffffffffffffffff1673ffffffffffffffffffffffffffffffffffffffff161415610e31576040517f08c379a0000000000000000000000000000000000000000000000000000000008152600401610e2890612113565b60405180910390fd5b60001515600660008362ffffff1662ffffff16815260200190815260200160002060009054906101000a900460ff1615151480610ebb5750600160009054906101000a900473ffffffffffffffffffffffffffffffffffffffff1673ffffffffffffffffffffffffffffffffffffffff163373ffffffffffffffffffffffffffffffffffffffff16145b610efa576040517f08c379a0000000000000000000000000000000000000000000000000000000008152600401610ef190612133565b60405180910390fd5b6000600460008362ffffff1662ffffff16815260200190815260200160002060009054906101000a900473ffffffffffffffffffffffffffffffffffffffff1690506000846000016020810190610f519190611a40565b905060405180608001604052808273ffffffffffffffffffffffffffffffffffffffff1681526020018462ffffff168152602001600067ffffffffffffffff811115610fc6577f4e487b7100000000000000000000000000000000000000000000000000000000600052604160045260246000fd5b604051908082528060200260200182016040528015610ff45781602001602082028036833780820191505090505b5081526020018373ffffffffffffffffffffffffffffffffffffffff16815250600860008201518160000160006101000a81548173ffffffffffffffffffffffffffffffffffffffff021916908373ffffffffffffffffffffffffffffffffffffffff16021790555060208201518160000160146101000a81548162ffffff021916908362ffffff160217905550604082015181600101908051906020019061109e92919061181f565b5060608201518160020160006101000a81548173ffffffffffffffffffffffffffffffffffffffff021916908373ffffffffffffffffffffffffffffffffffffffff1602179055509050508173ffffffffffffffffffffffffffffffffffffffff1663762f324f868060400190611115919061216e565b846040518463ffffffff1660e01b815260040161113493929190611fe9565b60006040518083038186803b15801561114c57600080fd5b505afa158015611160573d6000803e3d6000fd5b505050506040513d6000823e3d601f19601f820116820180604052508101906111899190611a92565b600860010190805190602001906111a192919061181f565b5060006111ae8285611636565b9050600073ffffffffffffffffffffffffffffffffffffffff166005600083815260200190815260200160002060009054906101000a900473ffffffffffffffffffffffffffffffffffffffff1673ffffffffffffffffffffffffffffffffffffffff1614611252576040517f08c379a000000000000000000000000000000000000000000000000000000000815260040161124990612073565b60405180910390fd5b600080600b60009054906101000a900473ffffffffffffffffffffffffffffffffffffffff1673ffffffffffffffffffffffffffffffffffffffff168360405160240161129f9190612036565b6040516020818303038152906040527fee2373e9000000000000000000000000000000000000000000000000000000007bffffffffffffffffffffffffffffffffffffffffffffffffffffffff19166020820180517bffffffffffffffffffffffffffffffffffffffffffffffffffffffff83818316178352505050506040516113299190611ed1565b600060405180830381855af49150503d8060008114611364576040519150601f19603f3d011682016040523d82523d6000602084013e611369565b606091505b50915091508180156113d25750600081511180156113d1575061138c3084611669565b73ffffffffffffffffffffffffffffffffffffffff16818060200190518101906113b69190611a69565b97508773ffffffffffffffffffffffffffffffffffffffff16145b5b611411576040517f08c379a0000000000000000000000000000000000000000000000000000000008152600401611408906120d3565b60405180910390fd5b61144f6040518060400160405280601781526020017f506f6f6c20637265617465642077697468206b65793a200000000000000000008152506116c4565b6114588361175d565b6008600080820160006101000a81549073ffffffffffffffffffffffffffffffffffffffff02191690556000820160146101000a81549062ffffff02191690556001820160006114a891906118a9565b6002820160006101000a81549073ffffffffffffffffffffffffffffffffffffffff02191690555050866005600085815260200190815260200160002060006101000a81548173ffffffffffffffffffffffffffffffffffffffff021916908373ffffffffffffffffffffffffffffffffffffffff1602179055506007879080600181540180825580915050600190039060005260206000200160009091909190916101000a81548173ffffffffffffffffffffffffffffffffffffffff021916908373ffffffffffffffffffffffffffffffffffffffff1602179055508562ffffff168473ffffffffffffffffffffffffffffffffffffffff168873ffffffffffffffffffffffffffffffffffffffff167f6b0bd0d931644137e75247d249fc244cf0391bdde8bce70175de4427f978dd35886007805490506040516115f0929190611fc0565b60405180910390a4505050505050919050565b60056020528060005260406000206000915054906101000a900473ffffffffffffffffffffffffffffffffffffffff1681565b6000828260405160200161164b929190611f4b565b60405160208183030381529060405280519060200120905092915050565b600082827f7da3ac9370b2a2a680c9ff71cd624ec12b8d4db719efb5d3d75ee8eb25ea277260001b6040516020016116a393929190611ee8565b6040516020818303038152906040528051906020012060001c905092915050565b61175a816040516024016116d89190612051565b6040516020818303038152906040527f41304fac000000000000000000000000000000000000000000000000000000007bffffffffffffffffffffffffffffffffffffffffffffffffffffffff19166020820180517bffffffffffffffffffffffffffffffffffffffffffffffffffffffff83818316178352505050506117f6565b50565b6117f3816040516024016117719190612036565b6040516020818303038152906040527f27b7cf85000000000000000000000000000000000000000000000000000000007bffffffffffffffffffffffffffffffffffffffffffffffffffffffff19166020820180517bffffffffffffffffffffffffffffffffffffffffffffffffffffffff83818316178352505050506117f6565b50565b60008151905060006a636f6e736f6c652e6c6f679050602083016000808483855afa5050505050565b828054828255906000526020600020908101928215611898579160200282015b828111156118975782518260006101000a81548173ffffffffffffffffffffffffffffffffffffffff021916908373ffffffffffffffffffffffffffffffffffffffff1602179055509160200191906001019061183f565b5b5090506118a591906118ca565b5090565b50805460008255906000526020600020908101906118c791906118ca565b50565b5b808211156118e35760008160009055506001016118cb565b5090565b60006118fa6118f5846121ea565b6121c5565b9050808382526020820190508285602086028201111561191957600080fd5b60005b85811015611949578161192f8882611968565b84526020840193506020830192505060018101905061191c565b5050509392505050565b60008135905061196281612554565b92915050565b60008151905061197781612554565b92915050565b60008151905061198c8161256b565b92915050565b600082601f8301126119a357600080fd5b81516119b38482602086016118e7565b91505092915050565b6000813590506119cb81612582565b92915050565b6000813590506119e081612599565b92915050565b6000606082840312156119f857600080fd5b81905092915050565b600081359050611a10816125b0565b92915050565b600081519050611a25816125b0565b92915050565b600081359050611a3a816125c7565b92915050565b600060208284031215611a5257600080fd5b6000611a6084828501611953565b91505092915050565b600060208284031215611a7b57600080fd5b6000611a898482850161197d565b91505092915050565b600060208284031215611aa457600080fd5b600082015167ffffffffffffffff811115611abe57600080fd5b611aca84828501611992565b91505092915050565b600060208284031215611ae557600080fd5b6000611af3848285016119d1565b91505092915050565b600060208284031215611b0e57600080fd5b600082013567ffffffffffffffff811115611b2857600080fd5b611b34848285016119e6565b91505092915050565b600060208284031215611b4f57600080fd5b6000611b5d84828501611a01565b91505092915050565b600060208284031215611b7857600080fd5b6000611b8684828501611a16565b91505092915050565b60008060408385031215611ba257600080fd5b6000611bb085828601611a01565b9250506020611bc1858286016119bc565b9150509250929050565b600060208284031215611bdd57600080fd5b6000611beb84828501611a2b565b91505092915050565b6000611c008383611c0c565b60208301905092915050565b611c15816122ba565b82525050565b611c24816122ba565b82525050565b611c3b611c36826122ba565b612391565b82525050565b6000611c4d838561226b565b9350611c5882612216565b8060005b85811015611c9157611c6e82846122a3565b611c788882611bf4565b9750611c8383612251565b925050600181019050611c5c565b5085925050509392505050565b6000611ca982612230565b611cb3818561226b565b9350611cbe83612220565b8060005b83811015611cef578151611cd68882611bf4565b9750611ce18361225e565b925050600181019050611cc2565b5085935050505092915050565b611d05816122de565b82525050565b611d14816122ea565b82525050565b611d2b611d26826122ea565b6123a3565b82525050565b6000611d3c8261223b565b611d46818561227c565b9350611d5681856020860161232d565b80840191505092915050565b6000611d6d82612246565b611d778185612287565b9350611d8781856020860161232d565b611d90816123ee565b840191505092915050565b6000611da8600b83612287565b9150611db38261240c565b602082019050919050565b6000611dcb600983612287565b9150611dd682612435565b602082019050919050565b6000611dee600b83612287565b9150611df98261245e565b602082019050919050565b6000611e11600183612298565b9150611e1c82612487565b600182019050919050565b6000611e34600683612287565b9150611e3f826124b0565b602082019050919050565b6000611e57600683612287565b9150611e62826124d9565b602082019050919050565b6000611e7a600c83612287565b9150611e8582612502565b602082019050919050565b6000611e9d600a83612287565b9150611ea88261252b565b602082019050919050565b611ebc81612314565b82525050565b611ecb81612323565b82525050565b6000611edd8284611d31565b915081905092915050565b6000611ef382611e04565b9150611eff8286611c2a565b601482019150611f0f8285611d1a565b602082019150611f1f8284611d1a565b602082019150819050949350505050565b6000602082019050611f456000830184611c1b565b92915050565b6000604082019050611f606000830185611c1b565b611f6d6020830184611eb3565b9392505050565b6000608082019050611f896000830187611c1b565b611f966020830186611eb3565b8181036040830152611fa88185611c9e565b9050611fb76060830184611c1b565b95945050505050565b6000604082019050611fd56000830185611c1b565b611fe26020830184611ec2565b9392505050565b60006040820190508181036000830152612004818587611c41565b90506120136020830184611c1b565b949350505050565b60006020820190506120306000830184611cfc565b92915050565b600060208201905061204b6000830184611d0b565b92915050565b6000602082019050818103600083015261206b8184611d62565b905092915050565b6000602082019050818103600083015261208c81611d9b565b9050919050565b600060208201905081810360008301526120ac81611dbe565b9050919050565b600060208201905081810360008301526120cc81611de1565b9050919050565b600060208201905081810360008301526120ec81611e27565b9050919050565b6000602082019050818103600083015261210c81611e4a565b9050919050565b6000602082019050818103600083015261212c81611e6d565b9050919050565b6000602082019050818103600083015261214c81611e90565b9050919050565b60006020820190506121686000830184611ec2565b92915050565b6000808335600160200384360303811261218757600080fd5b80840192508235915067ffffffffffffffff8211156121a557600080fd5b6020830192506020820236038313156121bd57600080fd5b509250929050565b60006121cf6121e0565b90506121db8282612360565b919050565b6000604051905090565b600067ffffffffffffffff821115612205576122046123bf565b5b602082029050602081019050919050565b6000819050919050565b6000819050602082019050919050565b600081519050919050565b600081519050919050565b600081519050919050565b6000602082019050919050565b6000602082019050919050565b600082825260208201905092915050565b600081905092915050565b600082825260208201905092915050565b600081905092915050565b60006122b26020840184611953565b905092915050565b60006122c5826122f4565b9050919050565b60006122d7826122f4565b9050919050565b60008115159050919050565b6000819050919050565b600073ffffffffffffffffffffffffffffffffffffffff82169050919050565b600062ffffff82169050919050565b6000819050919050565b60005b8381101561234b578082015181840152602081019050612330565b8381111561235a576000848401525b50505050565b612369826123ee565b810181811067ffffffffffffffff82111715612388576123876123bf565b5b80604052505050565b600061239c826123ad565b9050919050565b6000819050919050565b60006123b8826123ff565b9050919050565b7f4e487b7100000000000000000000000000000000000000000000000000000000600052604160045260246000fd5b6000601f19601f8301169050919050565b60008160601b9050919050565b7f504f4f4c5f455849535453000000000000000000000000000000000000000000600082015250565b7f464f5242494444454e0000000000000000000000000000000000000000000000600082015250565b7f50524f545f455849535453000000000000000000000000000000000000000000600082015250565b7fff00000000000000000000000000000000000000000000000000000000000000600082015250565b7f4445504c4f590000000000000000000000000000000000000000000000000000600082015250565b7f305f50524f540000000000000000000000000000000000000000000000000000600082015250565b7f50524f545f4e4f545f5345540000000000000000000000000000000000000000600082015250565b7f5245535452494354454400000000000000000000000000000000000000000000600082015250565b61255d816122ba565b811461256857600080fd5b50565b612574816122cc565b811461257f57600080fd5b50565b61258b816122de565b811461259657600080fd5b50565b6125a2816122ea565b81146125ad57600080fd5b50565b6125b981612314565b81146125c457600080fd5b50565b6125d081612323565b81146125db57600080fd5b5056fea2646970667358221220640821c0eb35d1bad8d15a927eec703a0609332bf6f534d663c9f7c8f48071c464736f6c6343000804003360a060405234801561001057600080fd5b503373ffffffffffffffffffffffffffffffffffffffff1660808173ffffffffffffffffffffffffffffffffffffffff1660601b8152505060805160601c615e3c61006b600039600081816099015260bf0152615e3c6000f3fe60806040523480156200001157600080fd5b50600436106200003a5760003560e01c8063c45a0155146200003f578063ee2373e91462000061575b600080fd5b6200004962000097565b604051620000589190620001b0565b60405180910390f35b6200007f600480360381019062000079919062000173565b620000bb565b6040516200008e9190620001b0565b60405180910390f35b7f000000000000000000000000000000000000000000000000000000000000000081565b60007f000000000000000000000000000000000000000000000000000000000000000073ffffffffffffffffffffffffffffffffffffffff163073ffffffffffffffffffffffffffffffffffffffff16146200011657600080fd5b8160405162000125906200014e565b8190604051809103906000f590508015801562000146573d6000803e3d6000fd5b509050919050565b615be1806200022683390190565b6000813590506200016d816200020b565b92915050565b6000602082840312156200018657600080fd5b600062000196848285016200015c565b91505092915050565b620001aa81620001cd565b82525050565b6000602082019050620001c760008301846200019f565b92915050565b6000620001da82620001eb565b9050919050565b6000819050919050565b600073ffffffffffffffffffffffffffffffffffffffff82169050919050565b6200021681620001e1565b81146200022257600080fd5b5056fe60806040523480156200001157600080fd5b50620000276200025060201b620029e31760201c565b6000806200003f620008b260201b620030201760201c565b60020160039054906101000a900473ffffffffffffffffffffffffffffffffffffffff1673ffffffffffffffffffffffffffffffffffffffff1663890357306040518163ffffffff1660e01b815260040160006040518083038186803b158015620000a957600080fd5b505afa158015620000be573d6000803e3d6000fd5b505050506040513d6000823e3d601f19601f82011682018060405250810190620000e9919062000ca6565b9150915060008062000105620008b260201b620030201760201c565b60020160039054906101000a900473ffffffffffffffffffffffffffffffffffffffff1673ffffffffffffffffffffffffffffffffffffffff16631af19f7760e01b85856040516024016200015c92919062000dd1565b604051602081830303815290604052907bffffffffffffffffffffffffffffffffffffffffffffffffffffffff19166020820180517bffffffffffffffffffffffffffffffffffffffffffffffffffffffff8381831617835250505050604051620001c8919062000db8565b600060405180830381855af49150503d806000811462000205576040519150601f19603f3d011682016040523d82523d6000602084013e6200020a565b606091505b50915091508180156200023c57506000815114806200023b5750808060200190518101906200023a919062000c7a565b5b5b6200024657600080fd5b50505050620010cb565b600062000262620008b260201b60201c565b90506000151581601b0160009054906101000a900460ff16151514620002bf576040517f08c379a0000000000000000000000000000000000000000000000000000000008152600401620002b69062000e0c565b60405180910390fd5b600181601b0160006101000a81548160ff0219169083151502179055506040518060400160405280600c81526020017f47616d6d615377617020563100000000000000000000000000000000000000008152508160200190805190602001906200032b929190620008df565b506040518060400160405280600781526020017f47414d412d5631000000000000000000000000000000000000000000000000008152508160210190805190602001906200037b929190620008df565b5060128160220160006101000a81548160ff021916908360ff160217905550338160000160006101000a81548173ffffffffffffffffffffffffffffffffffffffff021916908373ffffffffffffffffffffffffffffffffffffffff1602179055503373ffffffffffffffffffffffffffffffffffffffff1663890357306040518163ffffffff1660e01b815260040160006040518083038186803b1580156200042457600080fd5b505afa15801562000439573d6000803e3d6000fd5b505050506040513d6000823e3d601f19601f8201168201806040525081019062000464919062000bf5565b8460030160008660020160008860010160008a60020160038891906101000a81548173ffffffffffffffffffffffffffffffffffffffff021916908373ffffffffffffffffffffffffffffffffffffffff160217905550879190509080519060200190620004d492919062000970565b508691906101000a81548162ffffff021916908362ffffff1602179055508591906101000a81548173ffffffffffffffffffffffffffffffffffffffff021916908373ffffffffffffffffffffffffffffffffffffffff1602179055505050505060008160020160039054906101000a900473ffffffffffffffffffffffffffffffffffffffff1690508073ffffffffffffffffffffffffffffffffffffffff16634932ed376040518163ffffffff1660e01b815260040160206040518083038186803b158015620005a557600080fd5b505afa158015620005ba573d6000803e3d6000fd5b505050506040513d601f19601f82011682018060405250810190620005e0919062000bc9565b8260040160006101000a81548173ffffffffffffffffffffffffffffffffffffffff021916908373ffffffffffffffffffffffffffffffffffffffff1602179055508073ffffffffffffffffffffffffffffffffffffffff166389c4fa126040518163ffffffff1660e01b815260040160206040518083038186803b1580156200066957600080fd5b505afa1580156200067e573d6000803e3d6000fd5b505050506040513d601f19601f82011682018060405250810190620006a4919062000bc9565b8260050160006101000a81548173ffffffffffffffffffffffffffffffffffffffff021916908373ffffffffffffffffffffffffffffffffffffffff160217905550816001018054905067ffffffffffffffff8111156200072e577f4e487b7100000000000000000000000000000000000000000000000000000000600052604160045260246000fd5b6040519080825280602002602001820160405280156200075d5781602001602082028036833780820191505090505b5082600601908051906020019062000777929190620009ff565b50816001018054905067ffffffffffffffff811115620007c0577f4e487b7100000000000000000000000000000000000000000000000000000000600052604160045260246000fd5b604051908082528060200260200182016040528015620007ef5781602001602082028036833780820191505090505b5082600e01908051906020019062000809929190620009ff565b50670de0b6b3a76400008260100181905550670de0b6b3a76400008260110181905550670de0b6b3a764000082601201819055504382601501819055503382601d0160006101000a81548173ffffffffffffffffffffffffffffffffffffffff021916908373ffffffffffffffffffffffffffffffffffffffff160217905550600182601e0181905550600182601f0181905550670de0b6b3a764000082601a01819055505050565b6000807f58a86ce9af3c88d86c606c50ca486aaedb655aee7dec73f917ade295c9fef44390508091505090565b828054620008ed9062000f79565b90600052602060002090601f0160209004810192826200091157600085556200095d565b82601f106200092c57805160ff19168380011785556200095d565b828001600101855582156200095d579182015b828111156200095c5782518255916020019190600101906200093f565b5b5090506200096c919062000a51565b5090565b828054828255906000526020600020908101928215620009ec579160200282015b82811115620009eb5782518260006101000a81548173ffffffffffffffffffffffffffffffffffffffff021916908373ffffffffffffffffffffffffffffffffffffffff1602179055509160200191906001019062000991565b5b509050620009fb919062000a51565b5090565b82805482825590600052602060002090810192821562000a3e579160200282015b8281111562000a3d57825182559160200191906001019062000a20565b5b50905062000a4d919062000a51565b5090565b5b8082111562000a6c57600081600090555060010162000a52565b5090565b600062000a8762000a818462000e57565b62000e2e565b9050808382526020820190508285602086028201111562000aa757600080fd5b60005b8581101562000adb578162000ac0888262000b2a565b84526020840193506020830192505060018101905062000aaa565b5050509392505050565b600062000afc62000af68462000e86565b62000e2e565b90508281526020810184848401111562000b1557600080fd5b62000b2284828562000f43565b509392505050565b60008151905062000b3b816200107d565b92915050565b600082601f83011262000b5357600080fd5b815162000b6584826020860162000a70565b91505092915050565b60008151905062000b7f8162001097565b92915050565b600082601f83011262000b9757600080fd5b815162000ba984826020860162000ae5565b91505092915050565b60008151905062000bc381620010b1565b92915050565b60006020828403121562000bdc57600080fd5b600062000bec8482850162000b2a565b91505092915050565b6000806000806080858703121562000c0c57600080fd5b600062000c1c8782880162000b2a565b945050602062000c2f8782880162000bb2565b935050604085015167ffffffffffffffff81111562000c4d57600080fd5b62000c5b8782880162000b41565b925050606062000c6e8782880162000b2a565b91505092959194509250565b60006020828403121562000c8d57600080fd5b600062000c9d8482850162000b6e565b91505092915050565b6000806040838503121562000cba57600080fd5b600083015167ffffffffffffffff81111562000cd557600080fd5b62000ce38582860162000b85565b925050602083015167ffffffffffffffff81111562000d0157600080fd5b62000d0f8582860162000b85565b9150509250929050565b600062000d268262000ebc565b62000d32818562000ec7565b935062000d4481856020860162000f43565b62000d4f8162001043565b840191505092915050565b600062000d678262000ebc565b62000d73818562000ed8565b935062000d8581856020860162000f43565b80840191505092915050565b600062000da060068362000ee3565b915062000dad8262001054565b602082019050919050565b600062000dc6828462000d5a565b915081905092915050565b6000604082019050818103600083015262000ded818562000d19565b9050818103602083015262000e03818462000d19565b90509392505050565b6000602082019050818103600083015262000e278162000d91565b9050919050565b600062000e3a62000e4d565b905062000e48828262000faf565b919050565b6000604051905090565b600067ffffffffffffffff82111562000e755762000e7462001014565b5b602082029050602081019050919050565b600067ffffffffffffffff82111562000ea45762000ea362001014565b5b62000eaf8262001043565b9050602081019050919050565b600081519050919050565b600082825260208201905092915050565b600081905092915050565b600082825260208201905092915050565b600062000f018262000f14565b9050919050565b60008115159050919050565b600073ffffffffffffffffffffffffffffffffffffffff82169050919050565b600062ffffff82169050919050565b60005b8381101562000f6357808201518184015260208101905062000f46565b8381111562000f73576000848401525b50505050565b6000600282049050600182168062000f9257607f821691505b6020821081141562000fa95762000fa862000fe5565b5b50919050565b62000fba8262001043565b810181811067ffffffffffffffff8211171562000fdc5762000fdb62001014565b5b80604052505050565b7f4e487b7100000000000000000000000000000000000000000000000000000000600052602260045260246000fd5b7f4e487b7100000000000000000000000000000000000000000000000000000000600052604160045260246000fd5b6000601f19601f8301169050919050565b7f47505f5345540000000000000000000000000000000000000000000000000000600082015250565b620010888162000ef4565b81146200109457600080fd5b50565b620010a28162000f08565b8114620010ae57600080fd5b50565b620010bc8162000f34565b8114620010c857600080fd5b50565b614b0680620010db6000396000f3fe608060405234801561001057600080fd5b50600436106103995760003560e01c806370a08231116101e9578063ba0876521161010f578063da1f12ab116100ad578063e5ca93d41161007c578063e5ca93d414610bff578063ea940b1d14610c1d578063ef8b30f714610c4d578063f92f445e14610c7d57610399565b8063da1f12ab14610b61578063db02f9cb14610b7f578063dd62ed3e14610bb1578063e1159b2d14610be157610399565b8063c6e6f592116100e9578063c6e6f59214610ab3578063c914b43714610ae3578063ce96cb7714610b01578063d905777e14610b3157610399565b8063ba08765214610a35578063c45a015514610a65578063c63d75b614610a8357610399565b806395d89b4111610187578063acf615d711610156578063acf615d714610987578063b3d7f6b9146109a5578063b460af94146109d5578063b8a8383414610a0557610399565b806395d89b41146108fd5780639d63848a1461091b578063a9059cbb14610939578063a94e6e571461096957610399565b806389f7fc44116101c357806389f7fc44146108735780638ce744261461089157806394bf804d146108af578063958ae690146108df57610399565b806370a082311461080757806387b9f4131461083757806389c4fa121461085557610399565b80632a9bc3f6116102ce5780634932ed371161026c57806365418ef51161023b57806365418ef51461076b57806365ec1a451461079b5780636e553f65146107b95780637007d7da146107e957610399565b80634932ed37146106ce5780634cdad506146106ec57806354fe2a961461071c5780636223dd6c1461074d57610399565b8063365a5306116102a8578063365a53061461062d57806338d52e0f14610662578063402d267d1461068057806344dcb671146106b057610399565b80632a9bc3f6146105c15780633035aa9c146105f1578063313ce5671461060f57610399565b80630cfba8eb1161033b578063192fdf1011610315578063192fdf101461051357806323b872dd146105435780632552317c1461057357806328cad17f1461059157610399565b80630cfba8eb146104a65780630e3bc974146104d757806318160ddd146104f557610399565b8063095ea7b311610377578063095ea7b31461040a5780630a28a4771461043a5780630a9b23101461046a5780630ab3ee111461048857610399565b806301e1d1141461039e57806306fdde03146103bc57806307a2d13a146103da575b600080fd5b6103a6610c9b565b6040516103b39190614373565b60405180910390f35b6103c4610da3565b6040516103d191906142d6565b60405180910390f35b6103f460048036038101906103ef9190613b9a565b610e3e565b6040516104019190614373565b60405180910390f35b610424600480360381019061041f9190613ac9565b610e80565b60405161043191906142bb565b60405180910390f35b610454600480360381019061044f9190613b9a565b610f7b565b6040516104619190614373565b60405180910390f35b610472610f8d565b60405161047f9190614269565b60405180910390f35b610490610fee565b60405161049d9190614373565b60405180910390f35b6104c060048036038101906104bb91906138b8565b611001565b6040516104ce92919061428b565b60405180910390f35b6104df61113b565b6040516104ec9190614269565b60405180910390f35b6104fd61119c565b60405161050a9190614373565b60405180910390f35b61052d600480360381019061052891906138b8565b6111af565b60405161053a9190614373565b60405180910390f35b61055d60048036038101906105589190613946565b6112e5565b60405161056a91906142bb565b60405180910390f35b61057b6114bc565b6040516105889190614373565b60405180910390f35b6105ab60048036038101906105a69190613d3b565b6114cf565b6040516105b89190614269565b60405180910390f35b6105db60048036038101906105d69190613c77565b611608565b6040516105e89190614269565b60405180910390f35b6105f9611744565b6040516106069190614126565b60405180910390f35b610617611777565b604051610624919061452f565b60405180910390f35b61064760048036038101906106429190613b9a565b611797565b604051610659969594939291906143ee565b60405180910390f35b61066a611865565b6040516106779190614126565b60405180910390f35b61069a600480360381019061069591906138b8565b611898565b6040516106a79190614373565b60405180910390f35b6106b86118ea565b6040516106c59190614373565b60405180910390f35b6106d66118fd565b6040516106e39190614126565b60405180910390f35b61070660048036038101906107019190613b9a565b611930565b6040516107139190614373565b60405180910390f35b61073660048036038101906107319190613995565b611942565b60405161074492919061428b565b60405180910390f35b610755611a8f565b6040516107629190614373565b60405180910390f35b610785600480360381019061078091906138b8565b611aa2565b6040516107929190614373565b60405180910390f35b6107a3611bd8565b6040516107b09190614373565b60405180910390f35b6107d360048036038101906107ce9190613bec565b611c45565b6040516107e09190614373565b60405180910390f35b6107f1611d7e565b6040516107fe9190614373565b60405180910390f35b610821600480360381019061081c91906138b8565b611d91565b60405161082e9190614373565b60405180910390f35b61083f611de3565b60405161084c9190614373565b60405180910390f35b61085d611df6565b60405161086a9190614126565b60405180910390f35b61087b611e29565b6040516108889190614373565b60405180910390f35b610899611e3c565b6040516108a69190614126565b60405180910390f35b6108c960048036038101906108c49190613bec565b611e6f565b6040516108d69190614373565b60405180910390f35b6108e7611fa8565b6040516108f49190614373565b60405180910390f35b610905611fbb565b60405161091291906142d6565b60405180910390f35b610923612056565b6040516109309190614247565b60405180910390f35b610953600480360381019061094e9190613ac9565b6120ed565b60405161096091906142bb565b60405180910390f35b610971612111565b60405161097e9190614373565b60405180910390f35b61098f612124565b60405161099c9190614373565b60405180910390f35b6109bf60048036038101906109ba9190613b9a565b612137565b6040516109cc9190614373565b60405180910390f35b6109ef60048036038101906109ea9190613c28565b612149565b6040516109fc9190614373565b60405180910390f35b610a1f6004803603810190610a1a9190613b9a565b612285565b604051610a2c9190614269565b60405180910390f35b610a4f6004803603810190610a4a9190613c28565b6123bb565b604051610a5c9190614373565b60405180910390f35b610a6d6124f7565b604051610a7a9190614126565b60405180910390f35b610a9d6004803603810190610a9891906138b8565b61252a565b604051610aaa9190614373565b60405180910390f35b610acd6004803603810190610ac89190613b9a565b612554565b604051610ada9190614373565b60405180910390f35b610aeb6125a7565b604051610af89190614373565b60405180910390f35b610b1b6004803603810190610b1691906138b8565b6125ba565b604051610b289190614373565b60405180910390f35b610b4b6004803603810190610b4691906138b8565b612614565b604051610b589190614373565b60405180910390f35b610b69612666565b604051610b769190614358565b60405180910390f35b610b996004803603810190610b949190613d3b565b612688565b604051610ba8939291906144f1565b60405180910390f35b610bcb6004803603810190610bc6919061390a565b6127c9565b604051610bd89190614373565b60405180910390f35b610be9612859565b604051610bf69190614373565b60405180910390f35b610c0761286c565b604051610c149190614373565b60405180910390f35b610c376004803603810190610c329190613ccf565b61287f565b604051610c449190614269565b60405180910390f35b610c676004803603810190610c629190613b9a565b6129be565b604051610c749190614373565b60405180910390f35b610c856129d0565b604051610c929190614373565b60405180910390f35b600080610ca6613020565b90508060050160009054906101000a900473ffffffffffffffffffffffffffffffffffffffff1673ffffffffffffffffffffffffffffffffffffffff16636ee4cffd8260030160009054906101000a900473ffffffffffffffffffffffffffffffffffffffff1683600b0154846007015485600801548660130154876014015488601501546040518863ffffffff1660e01b8152600401610d4d97969594939291906141d8565b60206040518083038186803b158015610d6557600080fd5b505afa158015610d79573d6000803e3d6000fd5b505050506040513d601f19601f82011682018060405250810190610d9d9190613bc3565b91505090565b6060610dad613020565b6020018054610dbb90614880565b80601f0160208091040260200160405190810160405280929190818152602001828054610de790614880565b8015610e345780601f10610e0957610100808354040283529160200191610e34565b820191906000526020600020905b815481529060010190602001808311610e1757829003601f168201915b5050505050905090565b600080610e4961119c565b905060008114610e765780610e5c610c9b565b84610e679190614742565b610e719190614711565b610e78565b825b915050919050565b600081610e8b613020565b60250160003373ffffffffffffffffffffffffffffffffffffffff1673ffffffffffffffffffffffffffffffffffffffff16815260200190815260200160002060008573ffffffffffffffffffffffffffffffffffffffff1673ffffffffffffffffffffffffffffffffffffffff168152602001908152602001600020819055508273ffffffffffffffffffffffffffffffffffffffff163373ffffffffffffffffffffffffffffffffffffffff167f8c5be1e5ebec7d5bd14f71427d1e84f3dd0314c0f7b2291e5b200ac8c7c3b92584604051610f699190614373565b60405180910390a36001905092915050565b6000610f8682612554565b9050919050565b6060610f97613020565b600e01805480602002602001604051908101604052809291908181526020018280548015610fe457602002820191906000526020600020905b815481526020019060010190808311610fd0575b5050505050905090565b6000610ff8613020565b60070154905090565b60606000806000611010613020565b60050160009054906101000a900473ffffffffffffffffffffffffffffffffffffffff1673ffffffffffffffffffffffffffffffffffffffff16634054bf2460e01b866040516024016110639190614126565b604051602081830303815290604052907bffffffffffffffffffffffffffffffffffffffffffffffffffffffff19166020820180517bffffffffffffffffffffffffffffffffffffffffffffffffffffffff83818316178352505050506040516110cd919061410f565b600060405180830381855af49150503d8060008114611108576040519150601f19603f3d011682016040523d82523d6000602084013e61110d565b606091505b50915091508161111c57600080fd5b808060200190518101906111309190613b46565b935093505050915091565b6060611145613020565b60060180548060200260200160405190810160405280929190818152602001828054801561119257602002820191906000526020600020905b81548152602001906001019080831161117e575b5050505050905090565b60006111a6613020565b60230154905090565b60008060006111bc613020565b60050160009054906101000a900473ffffffffffffffffffffffffffffffffffffffff1673ffffffffffffffffffffffffffffffffffffffff1663e62d2eeb60e01b8560405160240161120f9190614126565b604051602081830303815290604052907bffffffffffffffffffffffffffffffffffffffffffffffffffffffff19166020820180517bffffffffffffffffffffffffffffffffffffffffffffffffffffffff8381831617835250505050604051611279919061410f565b600060405180830381855af49150503d80600081146112b4576040519150601f19603f3d011682016040523d82523d6000602084013e6112b9565b606091505b5091509150816112c857600080fd5b808060200190518101906112dc9190613bc3565b92505050919050565b6000806112f0613020565b90507fffffffffffffffffffffffffffffffffffffffffffffffffffffffffffffffff8160250160008773ffffffffffffffffffffffffffffffffffffffff1673ffffffffffffffffffffffffffffffffffffffff16815260200190815260200160002060003373ffffffffffffffffffffffffffffffffffffffff1673ffffffffffffffffffffffffffffffffffffffff16815260200190815260200160002054146114a457828160250160008773ffffffffffffffffffffffffffffffffffffffff1673ffffffffffffffffffffffffffffffffffffffff16815260200190815260200160002060003373ffffffffffffffffffffffffffffffffffffffff1673ffffffffffffffffffffffffffffffffffffffff16815260200190815260200160002054611421919061479c565b8160250160008773ffffffffffffffffffffffffffffffffffffffff1673ffffffffffffffffffffffffffffffffffffffff16815260200190815260200160002060003373ffffffffffffffffffffffffffffffffffffffff1673ffffffffffffffffffffffffffffffffffffffff168152602001908152602001600020819055505b6114b08186868661304d565b60019150509392505050565b60006114c6613020565b60150154905090565b60606000806114dc613020565b60040160009054906101000a900473ffffffffffffffffffffffffffffffffffffffff1673ffffffffffffffffffffffffffffffffffffffff1663a4fa646f60e01b86866040516024016115319291906144c8565b604051602081830303815290604052907bffffffffffffffffffffffffffffffffffffffffffffffffffffffff19166020820180517bffffffffffffffffffffffffffffffffffffffffffffffffffffffff838183161783525050505060405161159b919061410f565b600060405180830381855af49150503d80600081146115d6576040519150601f19603f3d011682016040523d82523d6000602084013e6115db565b606091505b5091509150816115ea57600080fd5b808060200190518101906115fe9190613b05565b9250505092915050565b6060600080611615613020565b60040160009054906101000a900473ffffffffffffffffffffffffffffffffffffffff1673ffffffffffffffffffffffffffffffffffffffff1663ab790c7860e01b87878760405160240161166c93929190614456565b604051602081830303815290604052907bffffffffffffffffffffffffffffffffffffffffffffffffffffffff19166020820180517bffffffffffffffffffffffffffffffffffffffffffffffffffffffff83818316178352505050506040516116d6919061410f565b600060405180830381855af49150503d8060008114611711576040519150601f19603f3d011682016040523d82523d6000602084013e611716565b606091505b50915091508161172557600080fd5b808060200190518101906117399190613b05565b925050509392505050565b600061174e613020565b60030160009054906101000a900473ffffffffffffffffffffffffffffffffffffffff16905090565b6000611781613020565b60220160009054906101000a900460ff16905090565b60008060606000806000806117aa613020565b601c016000898152602001908152602001600020905080600001548160010160009054906101000a900473ffffffffffffffffffffffffffffffffffffffff16826002018360040154846006015485600701548380548060200260200160405190810160405280929190818152602001828054801561184857602002820191906000526020600020905b815481526020019060010190808311611834575b505050505093509650965096509650965096505091939550919395565b600061186f613020565b60030160009054906101000a900473ffffffffffffffffffffffffffffffffffffffff16905090565b6000806118a3610c9b565b11806118b6575060006118b461119c565b145b6118c15760006118e3565b7fffffffffffffffffffffffffffffffffffffffffffffffffffffffffffffffff5b9050919050565b60006118f4613020565b600a0154905090565b6000611907613020565b60040160009054906101000a900473ffffffffffffffffffffffffffffffffffffffff16905090565b600061193b82610e3e565b9050919050565b60606000806000611951613020565b60050160009054906101000a900473ffffffffffffffffffffffffffffffffffffffff1673ffffffffffffffffffffffffffffffffffffffff166354d86e3f60e01b8c8c8c8c8c8c8c6040516024016119b09796959493929190614178565b604051602081830303815290604052907bffffffffffffffffffffffffffffffffffffffffffffffffffffffff19166020820180517bffffffffffffffffffffffffffffffffffffffffffffffffffffffff8381831617835250505050604051611a1a919061410f565b600060405180830381855af49150503d8060008114611a55576040519150601f19603f3d011682016040523d82523d6000602084013e611a5a565b606091505b509150915081611a6957600080fd5b80806020019051810190611a7d9190613b46565b93509350505097509795505050505050565b6000611a99613020565b600d0154905090565b6000806000611aaf613020565b60050160009054906101000a900473ffffffffffffffffffffffffffffffffffffffff1673ffffffffffffffffffffffffffffffffffffffff16635b35b5b460e01b85604051602401611b029190614126565b604051602081830303815290604052907bffffffffffffffffffffffffffffffffffffffffffffffffffffffff19166020820180517bffffffffffffffffffffffffffffffffffffffffffffffffffffffff8381831617835250505050604051611b6c919061410f565b600060405180830381855af49150503d8060008114611ba7576040519150601f19603f3d011682016040523d82523d6000602084013e611bac565b606091505b509150915081611bbb57600080fd5b80806020019051810190611bcf9190613bc3565b92505050919050565b6000611be2613260565b611bea6132c0565b90503373ffffffffffffffffffffffffffffffffffffffff167fff6a5b0e4cacd5965a6a32e6b962e1c85c90ea06d047a28293fe91759a79f28982604051611c329190614373565b60405180910390a2611c426134a3565b90565b6000806000611c52613020565b60050160009054906101000a900473ffffffffffffffffffffffffffffffffffffffff1673ffffffffffffffffffffffffffffffffffffffff1663463cd97060e01b8686604051602401611ca792919061438e565b604051602081830303815290604052907bffffffffffffffffffffffffffffffffffffffffffffffffffffffff19166020820180517bffffffffffffffffffffffffffffffffffffffffffffffffffffffff8381831617835250505050604051611d11919061410f565b600060405180830381855af49150503d8060008114611d4c576040519150601f19603f3d011682016040523d82523d6000602084013e611d51565b606091505b509150915081611d6057600080fd5b80806020019051810190611d749190613bc3565b9250505092915050565b6000611d88613020565b60100154905090565b6000611d9b613020565b60240160008373ffffffffffffffffffffffffffffffffffffffff1673ffffffffffffffffffffffffffffffffffffffff168152602001908152602001600020549050919050565b6000611ded613020565b60140154905090565b6000611e00613020565b60050160009054906101000a900473ffffffffffffffffffffffffffffffffffffffff16905090565b6000611e33613020565b60110154905090565b6000611e46613020565b60020160039054906101000a900473ffffffffffffffffffffffffffffffffffffffff16905090565b6000806000611e7c613020565b60050160009054906101000a900473ffffffffffffffffffffffffffffffffffffffff1673ffffffffffffffffffffffffffffffffffffffff1663e855aee560e01b8686604051602401611ed192919061438e565b604051602081830303815290604052907bffffffffffffffffffffffffffffffffffffffffffffffffffffffff19166020820180517bffffffffffffffffffffffffffffffffffffffffffffffffffffffff8381831617835250505050604051611f3b919061410f565b600060405180830381855af49150503d8060008114611f76576040519150601f19603f3d011682016040523d82523d6000602084013e611f7b565b606091505b509150915081611f8a57600080fd5b80806020019051810190611f9e9190613bc3565b9250505092915050565b6000611fb2613020565b60120154905090565b6060611fc5613020565b6021018054611fd390614880565b80601f0160208091040260200160405190810160405280929190818152602001828054611fff90614880565b801561204c5780601f106120215761010080835404028352916020019161204c565b820191906000526020600020905b81548152906001019060200180831161202f57829003601f168201915b5050505050905090565b6060612060613020565b6001018054806020026020016040519081016040528092919081815260200182805480156120e357602002820191906000526020600020905b8160009054906101000a900473ffffffffffffffffffffffffffffffffffffffff1673ffffffffffffffffffffffffffffffffffffffff1681526020019060010190808311612099575b5050505050905090565b6000806120f8613020565b90506121068133868661304d565b600191505092915050565b600061211b613020565b60090154905090565b600061212e613020565b600c0154905090565b600061214282610e3e565b9050919050565b6000806000612156613020565b60050160009054906101000a900473ffffffffffffffffffffffffffffffffffffffff1673ffffffffffffffffffffffffffffffffffffffff16630ca4237960e01b8787876040516024016121ad939291906143b7565b604051602081830303815290604052907bffffffffffffffffffffffffffffffffffffffffffffffffffffffff19166020820180517bffffffffffffffffffffffffffffffffffffffffffffffffffffffff8381831617835250505050604051612217919061410f565b600060405180830381855af49150503d8060008114612252576040519150601f19603f3d011682016040523d82523d6000602084013e612257565b606091505b50915091508161226657600080fd5b8080602001905181019061227a9190613bc3565b925050509392505050565b6060600080612292613020565b60040160009054906101000a900473ffffffffffffffffffffffffffffffffffffffff1673ffffffffffffffffffffffffffffffffffffffff1663b35dceab60e01b856040516024016122e59190614373565b604051602081830303815290604052907bffffffffffffffffffffffffffffffffffffffffffffffffffffffff19166020820180517bffffffffffffffffffffffffffffffffffffffffffffffffffffffff838183161783525050505060405161234f919061410f565b600060405180830381855af49150503d806000811461238a576040519150601f19603f3d011682016040523d82523d6000602084013e61238f565b606091505b50915091508161239e57600080fd5b808060200190518101906123b29190613b05565b92505050919050565b60008060006123c8613020565b60050160009054906101000a900473ffffffffffffffffffffffffffffffffffffffff1673ffffffffffffffffffffffffffffffffffffffff16633337cd8560e01b87878760405160240161241f939291906143b7565b604051602081830303815290604052907bffffffffffffffffffffffffffffffffffffffffffffffffffffffff19166020820180517bffffffffffffffffffffffffffffffffffffffffffffffffffffffff8381831617835250505050604051612489919061410f565b600060405180830381855af49150503d80600081146124c4576040519150601f19603f3d011682016040523d82523d6000602084013e6124c9565b606091505b5091509150816124d857600080fd5b808060200190518101906124ec9190613bc3565b925050509392505050565b6000612501613020565b60000160009054906101000a900473ffffffffffffffffffffffffffffffffffffffff16905090565b60007fffffffffffffffffffffffffffffffffffffffffffffffffffffffffffffffff9050919050565b60008061255f61119c565b9050600061256b610c9b565b9050600082148061257c5750600081145b61259c5780828561258d9190614742565b6125979190614711565b61259e565b835b92505050919050565b60006125b1613020565b600f0154905090565b600061260d6125c7613020565b60240160008473ffffffffffffffffffffffffffffffffffffffff1673ffffffffffffffffffffffffffffffffffffffff16815260200190815260200160002054610e3e565b9050919050565b600061261e613020565b60240160008373ffffffffffffffffffffffffffffffffffffffff1673ffffffffffffffffffffffffffffffffffffffff168152602001908152602001600020549050919050565b6000612670613020565b60020160009054906101000a900462ffffff16905090565b6000806060600080612698613020565b60040160009054906101000a900473ffffffffffffffffffffffffffffffffffffffff1673ffffffffffffffffffffffffffffffffffffffff166337d1b3d660e01b88886040516024016126ed9291906144c8565b604051602081830303815290604052907bffffffffffffffffffffffffffffffffffffffffffffffffffffffff19166020820180517bffffffffffffffffffffffffffffffffffffffffffffffffffffffff8381831617835250505050604051612757919061410f565b600060405180830381855af49150503d8060008114612792576040519150601f19603f3d011682016040523d82523d6000602084013e612797565b606091505b5091509150816127a657600080fd5b808060200190518101906127ba9190613d77565b94509450945050509250925092565b60006127d3613020565b60250160008473ffffffffffffffffffffffffffffffffffffffff1673ffffffffffffffffffffffffffffffffffffffff16815260200190815260200160002060008373ffffffffffffffffffffffffffffffffffffffff1673ffffffffffffffffffffffffffffffffffffffff16815260200190815260200160002054905092915050565b6000612863613020565b60080154905090565b6000612876613020565b600b0154905090565b606060008061288c613020565b60040160009054906101000a900473ffffffffffffffffffffffffffffffffffffffff1673ffffffffffffffffffffffffffffffffffffffff16630d5cf12b60e01b888888886040516024016128e59493929190614488565b604051602081830303815290604052907bffffffffffffffffffffffffffffffffffffffffffffffffffffffff19166020820180517bffffffffffffffffffffffffffffffffffffffffffffffffffffffff838183161783525050505060405161294f919061410f565b600060405180830381855af49150503d806000811461298a576040519150601f19603f3d011682016040523d82523d6000602084013e61298f565b606091505b50915091508161299e57600080fd5b808060200190518101906129b29190613b05565b92505050949350505050565b60006129c982612554565b9050919050565b60006129da613020565b60130154905090565b60006129ed613020565b90506000151581601b0160009054906101000a900460ff16151514612a47576040517f08c379a0000000000000000000000000000000000000000000000000000000008152600401612a3e90614318565b60405180910390fd5b600181601b0160006101000a81548160ff0219169083151502179055506040518060400160405280600c81526020017f47616d6d61537761702056310000000000000000000000000000000000000000815250816020019080519060200190612ab19291906134b6565b506040518060400160405280600781526020017f47414d412d563100000000000000000000000000000000000000000000000000815250816021019080519060200190612aff9291906134b6565b5060128160220160006101000a81548160ff021916908360ff160217905550338160000160006101000a81548173ffffffffffffffffffffffffffffffffffffffff021916908373ffffffffffffffffffffffffffffffffffffffff1602179055503373ffffffffffffffffffffffffffffffffffffffff1663890357306040518163ffffffff1660e01b815260040160006040518083038186803b158015612ba757600080fd5b505afa158015612bbb573d6000803e3d6000fd5b505050506040513d6000823e3d601f19601f82011682018060405250810190612be49190613a4e565b8460030160008660020160008860010160008a60020160038891906101000a81548173ffffffffffffffffffffffffffffffffffffffff021916908373ffffffffffffffffffffffffffffffffffffffff160217905550879190509080519060200190612c5292919061353c565b508691906101000a81548162ffffff021916908362ffffff1602179055508591906101000a81548173ffffffffffffffffffffffffffffffffffffffff021916908373ffffffffffffffffffffffffffffffffffffffff1602179055505050505060008160020160039054906101000a900473ffffffffffffffffffffffffffffffffffffffff1690508073ffffffffffffffffffffffffffffffffffffffff16634932ed376040518163ffffffff1660e01b815260040160206040518083038186803b158015612d2257600080fd5b505afa158015612d36573d6000803e3d6000fd5b505050506040513d601f19601f82011682018060405250810190612d5a91906138e1565b8260040160006101000a81548173ffffffffffffffffffffffffffffffffffffffff021916908373ffffffffffffffffffffffffffffffffffffffff1602179055508073ffffffffffffffffffffffffffffffffffffffff166389c4fa126040518163ffffffff1660e01b815260040160206040518083038186803b158015612de257600080fd5b505afa158015612df6573d6000803e3d6000fd5b505050506040513d601f19601f82011682018060405250810190612e1a91906138e1565b8260050160006101000a81548173ffffffffffffffffffffffffffffffffffffffff021916908373ffffffffffffffffffffffffffffffffffffffff160217905550816001018054905067ffffffffffffffff811115612ea3577f4e487b7100000000000000000000000000000000000000000000000000000000600052604160045260246000fd5b604051908082528060200260200182016040528015612ed15781602001602082028036833780820191505090505b50826006019080519060200190612ee99291906135c6565b50816001018054905067ffffffffffffffff811115612f31577f4e487b7100000000000000000000000000000000000000000000000000000000600052604160045260246000fd5b604051908082528060200260200182016040528015612f5f5781602001602082028036833780820191505090505b5082600e019080519060200190612f779291906135c6565b50670de0b6b3a76400008260100181905550670de0b6b3a76400008260110181905550670de0b6b3a764000082601201819055504382601501819055503382601d0160006101000a81548173ffffffffffffffffffffffffffffffffffffffff021916908373ffffffffffffffffffffffffffffffffffffffff160217905550600182601e0181905550600182601f0181905550670de0b6b3a764000082601a01819055505050565b6000807f58a86ce9af3c88d86c606c50ca486aaedb655aee7dec73f917ade295c9fef44390508091505090565b808460240160008573ffffffffffffffffffffffffffffffffffffffff1673ffffffffffffffffffffffffffffffffffffffff1681526020019081526020016000205410156130d1576040517f08c379a00000000000000000000000000000000000000000000000000000000081526004016130c8906142f8565b60405180910390fd5b808460240160008573ffffffffffffffffffffffffffffffffffffffff1673ffffffffffffffffffffffffffffffffffffffff1681526020019081526020016000205461311e919061479c565b8460240160008573ffffffffffffffffffffffffffffffffffffffff1673ffffffffffffffffffffffffffffffffffffffff16815260200190815260200160002081905550808460240160008473ffffffffffffffffffffffffffffffffffffffff1673ffffffffffffffffffffffffffffffffffffffff168152602001908152602001600020546131b091906146bb565b8460240160008473ffffffffffffffffffffffffffffffffffffffff1673ffffffffffffffffffffffffffffffffffffffff168152602001908152602001600020819055508173ffffffffffffffffffffffffffffffffffffffff168373ffffffffffffffffffffffffffffffffffffffff167fddf252ad1be2c89b69c2b068fc378daa952ba7f163c4a11628f55a4df523b3ef836040516132529190614373565b60405180910390a350505050565b600061326a613020565b9050600181601f0154146132b3576040517f08c379a00000000000000000000000000000000000000000000000000000000081526004016132aa90614338565b60405180910390fd5b600081601f018190555050565b6000806132cb613020565b9050600081601e0160008154809291906132e4906148e3565b9190505590503330826040516020016132ff93929190614141565b6040516020818303038152906040528051906020012060001c92506040518061010001604052808281526020013073ffffffffffffffffffffffffffffffffffffffff168152602001836001018054905067ffffffffffffffff81111561338f577f4e487b7100000000000000000000000000000000000000000000000000000000600052604160045260246000fd5b6040519080825280602002602001820160405280156133bd5781602001602082028036833780820191505090505b508152602001600081526020016000815260200160008152602001836010015481526020014381525082601c0160008581526020019081526020016000206000820151816000015560208201518160010160006101000a81548173ffffffffffffffffffffffffffffffffffffffff021916908373ffffffffffffffffffffffffffffffffffffffff16021790555060408201518160020190805190602001906134689291906135c6565b50606082015181600301556080820151816004015560a0820151816005015560c0820151816006015560e08201518160070155905050505090565b60016134ad613020565b601f0181905550565b8280546134c290614880565b90600052602060002090601f0160209004810192826134e4576000855561352b565b82601f106134fd57805160ff191683800117855561352b565b8280016001018555821561352b579182015b8281111561352a57825182559160200191906001019061350f565b5b5090506135389190613613565b5090565b8280548282559060005260206000209081019282156135b5579160200282015b828111156135b45782518260006101000a81548173ffffffffffffffffffffffffffffffffffffffff021916908373ffffffffffffffffffffffffffffffffffffffff1602179055509160200191906001019061355c565b5b5090506135c29190613613565b5090565b828054828255906000526020600020908101928215613602579160200282015b828111156136015782518255916020019190600101906135e6565b5b50905061360f9190613613565b5090565b5b8082111561362c576000816000905550600101613614565b5090565b600061364361363e8461456f565b61454a565b9050808382526020820190508285602086028201111561366257600080fd5b60005b858110156136925781613678888261371d565b845260208401935060208301925050600181019050613665565b5050509392505050565b60006136af6136aa8461459b565b61454a565b905080838252602082019050828560208602820111156136ce57600080fd5b60005b858110156136fe57816136e488826138a3565b8452602084019350602083019250506001810190506136d1565b5050509392505050565b60008135905061371781614a74565b92915050565b60008151905061372c81614a74565b92915050565b600082601f83011261374357600080fd5b8151613753848260208601613630565b91505092915050565b60008083601f84011261376e57600080fd5b8235905067ffffffffffffffff81111561378757600080fd5b60208301915083602082028301111561379f57600080fd5b9250929050565b60008083601f8401126137b857600080fd5b8235905067ffffffffffffffff8111156137d157600080fd5b6020830191508360208202830111156137e957600080fd5b9250929050565b600082601f83011261380157600080fd5b815161381184826020860161369c565b91505092915050565b60008083601f84011261382c57600080fd5b8235905067ffffffffffffffff81111561384557600080fd5b60208301915083600182028301111561385d57600080fd5b9250929050565b60008135905061387381614a8b565b92915050565b60008151905061388881614aa2565b92915050565b60008135905061389d81614ab9565b92915050565b6000815190506138b281614ab9565b92915050565b6000602082840312156138ca57600080fd5b60006138d884828501613708565b91505092915050565b6000602082840312156138f357600080fd5b60006139018482850161371d565b91505092915050565b6000806040838503121561391d57600080fd5b600061392b85828601613708565b925050602061393c85828601613708565b9150509250929050565b60008060006060848603121561395b57600080fd5b600061396986828701613708565b935050602061397a86828701613708565b925050604061398b8682870161388e565b9150509250925092565b60008060008060008060006080888a0312156139b057600080fd5b60006139be8a828b01613708565b975050602088013567ffffffffffffffff8111156139db57600080fd5b6139e78a828b016137a6565b9650965050604088013567ffffffffffffffff811115613a0657600080fd5b613a128a828b016137a6565b9450945050606088013567ffffffffffffffff811115613a3157600080fd5b613a3d8a828b0161381a565b925092505092959891949750929550565b60008060008060808587031215613a6457600080fd5b6000613a728782880161371d565b9450506020613a8387828801613879565b935050604085015167ffffffffffffffff811115613aa057600080fd5b613aac87828801613732565b9250506060613abd8782880161371d565b91505092959194509250565b60008060408385031215613adc57600080fd5b6000613aea85828601613708565b9250506020613afb8582860161388e565b9150509250929050565b600060208284031215613b1757600080fd5b600082015167ffffffffffffffff811115613b3157600080fd5b613b3d848285016137f0565b91505092915050565b60008060408385031215613b5957600080fd5b600083015167ffffffffffffffff811115613b7357600080fd5b613b7f858286016137f0565b9250506020613b90858286016138a3565b9150509250929050565b600060208284031215613bac57600080fd5b6000613bba8482850161388e565b91505092915050565b600060208284031215613bd557600080fd5b6000613be3848285016138a3565b91505092915050565b60008060408385031215613bff57600080fd5b6000613c0d8582860161388e565b9250506020613c1e85828601613708565b9150509250929050565b600080600060608486031215613c3d57600080fd5b6000613c4b8682870161388e565b9350506020613c5c86828701613708565b9250506040613c6d86828701613708565b9150509250925092565b600080600060408486031215613c8c57600080fd5b6000613c9a8682870161388e565b935050602084013567ffffffffffffffff811115613cb757600080fd5b613cc38682870161375c565b92509250509250925092565b60008060008060608587031215613ce557600080fd5b6000613cf38782880161388e565b945050602085013567ffffffffffffffff811115613d1057600080fd5b613d1c878288016137a6565b93509350506040613d2f87828801613708565b91505092959194509250565b60008060408385031215613d4e57600080fd5b6000613d5c8582860161388e565b9250506020613d6d8582860161388e565b9150509250929050565b600080600060608486031215613d8c57600080fd5b6000613d9a868287016138a3565b9350506020613dab868287016138a3565b925050604084015167ffffffffffffffff811115613dc857600080fd5b613dd4868287016137f0565b9150509250925092565b6000613dea8383613e26565b60208301905092915050565b6000613e028383614022565b60208301905092915050565b6000613e1a83836140e2565b60208301905092915050565b613e2f816147d0565b82525050565b613e3e816147d0565b82525050565b6000613e4f826145f1565b613e598185614644565b9350613e64836145c7565b8060005b83811015613e95578151613e7c8882613dde565b9750613e878361461d565b925050600181019050613e68565b5085935050505092915050565b6000613eae8385614655565b9350613eb9826145d7565b8060005b85811015613ef257613ecf82846146a4565b613ed98882613df6565b9750613ee48361462a565b925050600181019050613ebd565b5085925050509392505050565b6000613f0b8385614666565b93507f07ffffffffffffffffffffffffffffffffffffffffffffffffffffffffffffff831115613f3a57600080fd5b602083029250613f4b83858461483e565b82840190509392505050565b6000613f62826145fc565b613f6c8185614666565b9350613f77836145e1565b8060005b83811015613fa8578151613f8f8882613e0e565b9750613f9a83614637565b925050600181019050613f7b565b5085935050505092915050565b613fbe816147e2565b82525050565b6000613fd08385614677565b9350613fdd83858461483e565b613fe6836149e8565b840190509392505050565b6000613ffc82614607565b6140068185614688565b935061401681856020860161484d565b80840191505092915050565b61402b816147ee565b82525050565b600061403c82614612565b6140468185614693565b935061405681856020860161484d565b61405f816149e8565b840191505092915050565b6000614077601083614693565b9150614082826149f9565b602082019050919050565b600061409a600683614693565b91506140a582614a22565b602082019050919050565b60006140bd600483614693565b91506140c882614a4b565b602082019050919050565b6140dc81614818565b82525050565b6140eb81614827565b82525050565b6140fa81614827565b82525050565b61410981614831565b82525050565b600061411b8284613ff1565b915081905092915050565b600060208201905061413b6000830184613e35565b92915050565b60006060820190506141566000830186613e35565b6141636020830185613e35565b61417060408301846140f1565b949350505050565b600060808201905061418d600083018a613e35565b81810360208301526141a081888a613eff565b905081810360408301526141b5818688613eff565b905081810360608301526141ca818486613fc4565b905098975050505050505050565b600060e0820190506141ed600083018a613e35565b6141fa60208301896140f1565b61420760408301886140f1565b61421460608301876140f1565b61422160808301866140f1565b61422e60a08301856140f1565b61423b60c08301846140f1565b98975050505050505050565b600060208201905081810360008301526142618184613e44565b905092915050565b600060208201905081810360008301526142838184613f57565b905092915050565b600060408201905081810360008301526142a58185613f57565b90506142b460208301846140f1565b9392505050565b60006020820190506142d06000830184613fb5565b92915050565b600060208201905081810360008301526142f08184614031565b905092915050565b600060208201905081810360008301526143118161406a565b9050919050565b600060208201905081810360008301526143318161408d565b9050919050565b60006020820190508181036000830152614351816140b0565b9050919050565b600060208201905061436d60008301846140d3565b92915050565b600060208201905061438860008301846140f1565b92915050565b60006040820190506143a360008301856140f1565b6143b06020830184613e35565b9392505050565b60006060820190506143cc60008301866140f1565b6143d96020830185613e35565b6143e66040830184613e35565b949350505050565b600060c08201905061440360008301896140f1565b6144106020830188613e35565b81810360408301526144228187613f57565b905061443160608301866140f1565b61443e60808301856140f1565b61444b60a08301846140f1565b979650505050505050565b600060408201905061446b60008301866140f1565b818103602083015261447e818486613ea2565b9050949350505050565b600060608201905061449d60008301876140f1565b81810360208301526144b0818587613eff565b90506144bf6040830184613e35565b95945050505050565b60006040820190506144dd60008301856140f1565b6144ea60208301846140f1565b9392505050565b600060608201905061450660008301866140f1565b61451360208301856140f1565b81810360408301526145258184613f57565b9050949350505050565b60006020820190506145446000830184614100565b92915050565b6000614554614565565b905061456082826148b2565b919050565b6000604051905090565b600067ffffffffffffffff82111561458a576145896149b9565b5b602082029050602081019050919050565b600067ffffffffffffffff8211156145b6576145b56149b9565b5b602082029050602081019050919050565b6000819050602082019050919050565b6000819050919050565b6000819050602082019050919050565b600081519050919050565b600081519050919050565b600081519050919050565b600081519050919050565b6000602082019050919050565b6000602082019050919050565b6000602082019050919050565b600082825260208201905092915050565b600082825260208201905092915050565b600082825260208201905092915050565b600082825260208201905092915050565b600081905092915050565b600082825260208201905092915050565b60006146b36020840184613864565b905092915050565b60006146c682614827565b91506146d183614827565b9250827fffffffffffffffffffffffffffffffffffffffffffffffffffffffffffffffff038211156147065761470561492c565b5b828201905092915050565b600061471c82614827565b915061472783614827565b9250826147375761473661495b565b5b828204905092915050565b600061474d82614827565b915061475883614827565b9250817fffffffffffffffffffffffffffffffffffffffffffffffffffffffffffffffff04831182151516156147915761479061492c565b5b828202905092915050565b60006147a782614827565b91506147b283614827565b9250828210156147c5576147c461492c565b5b828203905092915050565b60006147db826147f8565b9050919050565b60008115159050919050565b6000819050919050565b600073ffffffffffffffffffffffffffffffffffffffff82169050919050565b600062ffffff82169050919050565b6000819050919050565b600060ff82169050919050565b82818337600083830152505050565b60005b8381101561486b578082015181840152602081019050614850565b8381111561487a576000848401525b50505050565b6000600282049050600182168061489857607f821691505b602082108114156148ac576148ab61498a565b5b50919050565b6148bb826149e8565b810181811067ffffffffffffffff821117156148da576148d96149b9565b5b80604052505050565b60006148ee82614827565b91507fffffffffffffffffffffffffffffffffffffffffffffffffffffffffffffffff8214156149215761492061492c565b5b600182019050919050565b7f4e487b7100000000000000000000000000000000000000000000000000000000600052601160045260246000fd5b7f4e487b7100000000000000000000000000000000000000000000000000000000600052601260045260246000fd5b7f4e487b7100000000000000000000000000000000000000000000000000000000600052602260045260246000fd5b7f4e487b7100000000000000000000000000000000000000000000000000000000600052604160045260246000fd5b6000601f19601f8301169050919050565b7f45524332303a2062616c203c2076616c00000000000000000000000000000000600082015250565b7f47505f5345540000000000000000000000000000000000000000000000000000600082015250565b7f4c4f434b00000000000000000000000000000000000000000000000000000000600082015250565b614a7d816147d0565b8114614a8857600080fd5b50565b614a94816147ee565b8114614a9f57600080fd5b50565b614aab81614818565b8114614ab657600080fd5b50565b614ac281614827565b8114614acd57600080fd5b5056fea2646970667358221220426cd8efc40c30dc66779ecca34ad2e6bc511b0f96d12bcff08e6f76e124fd0264736f6c63430008040033a26469706673582212200560512566d664ac1be4e9a50140e276726dcfa755860fa76207c4b9a901686d64736f6c63430008040033",
  "linkReferences": {},
  "deployedLinkReferences": {}
}