{
  "_format": "hh-sol-artifact-1",
  "contractName": "GammaPool",
  "sourceName": "contracts/GammaPool.sol",
  "abi": [
    {
      "inputs": [],
      "stateMutability": "nonpayable",
      "type": "constructor"
    },
    {
      "anonymous": false,
      "inputs": [
        {
          "indexed": true,
          "internalType": "address",
          "name": "owner",
          "type": "address"
        },
        {
          "indexed": true,
          "internalType": "address",
          "name": "spender",
          "type": "address"
        },
        {
          "indexed": false,
          "internalType": "uint256",
          "name": "value",
          "type": "uint256"
        }
      ],
      "name": "Approval",
      "type": "event"
    },
    {
      "anonymous": false,
      "inputs": [
        {
          "indexed": true,
          "internalType": "address",
          "name": "caller",
          "type": "address"
        },
        {
          "indexed": true,
          "internalType": "address",
          "name": "to",
          "type": "address"
        },
        {
          "indexed": false,
          "internalType": "uint256",
          "name": "assets",
          "type": "uint256"
        },
        {
          "indexed": false,
          "internalType": "uint256",
          "name": "shares",
          "type": "uint256"
        }
      ],
      "name": "Deposit",
      "type": "event"
    },
    {
      "anonymous": false,
      "inputs": [
        {
          "indexed": true,
          "internalType": "address",
          "name": "caller",
          "type": "address"
        },
        {
          "indexed": false,
          "internalType": "uint256",
          "name": "tokenId",
          "type": "uint256"
        }
      ],
      "name": "LoanCreated",
      "type": "event"
    },
    {
      "anonymous": false,
      "inputs": [
        {
          "indexed": true,
          "internalType": "uint256",
          "name": "tokenId",
          "type": "uint256"
        },
        {
          "indexed": false,
          "internalType": "uint256[]",
          "name": "tokensHeld",
          "type": "uint256[]"
        },
        {
          "indexed": false,
          "internalType": "uint256",
          "name": "heldLiquidity",
          "type": "uint256"
        },
        {
          "indexed": false,
          "internalType": "uint256",
          "name": "liquidity",
          "type": "uint256"
        },
        {
          "indexed": false,
          "internalType": "uint256",
          "name": "lpTokens",
          "type": "uint256"
        },
        {
          "indexed": false,
          "internalType": "uint256",
          "name": "rateIndex",
          "type": "uint256"
        }
      ],
      "name": "LoanUpdated",
      "type": "event"
    },
    {
      "anonymous": false,
      "inputs": [
        {
          "indexed": false,
          "internalType": "uint256",
          "name": "lpTokenBalance",
          "type": "uint256"
        },
        {
          "indexed": false,
          "internalType": "uint256",
          "name": "lpTokenBorrowed",
          "type": "uint256"
        },
        {
          "indexed": false,
          "internalType": "uint256",
          "name": "lastBlockNumber",
          "type": "uint256"
        },
        {
          "indexed": false,
          "internalType": "uint256",
          "name": "accFeeIndex",
          "type": "uint256"
        },
        {
          "indexed": false,
          "internalType": "uint256",
          "name": "lastFeeIndex",
          "type": "uint256"
        },
        {
          "indexed": false,
          "internalType": "uint256",
          "name": "lpTokenBorrowedPlusInterest",
          "type": "uint256"
        },
        {
          "indexed": false,
          "internalType": "uint256",
          "name": "lpInvariant",
          "type": "uint256"
        },
        {
          "indexed": false,
          "internalType": "uint256",
          "name": "lpBorrowedInvariant",
          "type": "uint256"
        }
      ],
      "name": "PoolUpdated",
      "type": "event"
    },
    {
      "anonymous": false,
      "inputs": [
        {
          "indexed": true,
          "internalType": "address",
          "name": "from",
          "type": "address"
        },
        {
          "indexed": true,
          "internalType": "address",
          "name": "to",
          "type": "address"
        },
        {
          "indexed": false,
          "internalType": "uint256",
          "name": "value",
          "type": "uint256"
        }
      ],
      "name": "Transfer",
      "type": "event"
    },
    {
      "anonymous": false,
      "inputs": [
        {
          "indexed": true,
          "internalType": "address",
          "name": "caller",
          "type": "address"
        },
        {
          "indexed": true,
          "internalType": "address",
          "name": "to",
          "type": "address"
        },
        {
          "indexed": true,
          "internalType": "address",
          "name": "from",
          "type": "address"
        },
        {
          "indexed": false,
          "internalType": "uint256",
          "name": "assets",
          "type": "uint256"
        },
        {
          "indexed": false,
          "internalType": "uint256",
          "name": "shares",
          "type": "uint256"
        }
      ],
      "name": "Withdraw",
      "type": "event"
    },
    {
      "inputs": [],
      "name": "accFeeIndex",
      "outputs": [
        {
          "internalType": "uint256",
          "name": "",
          "type": "uint256"
        }
      ],
      "stateMutability": "view",
      "type": "function"
    },
    {
      "inputs": [
        {
          "internalType": "address",
          "name": "owner",
          "type": "address"
        },
        {
          "internalType": "address",
          "name": "spender",
          "type": "address"
        }
      ],
      "name": "allowance",
      "outputs": [
        {
          "internalType": "uint256",
          "name": "",
          "type": "uint256"
        }
      ],
      "stateMutability": "view",
      "type": "function"
    },
    {
      "inputs": [
        {
          "internalType": "address",
          "name": "spender",
          "type": "address"
        },
        {
          "internalType": "uint256",
          "name": "value",
          "type": "uint256"
        }
      ],
      "name": "approve",
      "outputs": [
        {
          "internalType": "bool",
          "name": "",
          "type": "bool"
        }
      ],
      "stateMutability": "nonpayable",
      "type": "function"
    },
    {
      "inputs": [],
      "name": "asset",
      "outputs": [
        {
          "internalType": "address",
          "name": "",
          "type": "address"
        }
      ],
      "stateMutability": "view",
      "type": "function"
    },
    {
      "inputs": [
        {
          "internalType": "address",
          "name": "account",
          "type": "address"
        }
      ],
      "name": "balanceOf",
      "outputs": [
        {
          "internalType": "uint256",
          "name": "",
          "type": "uint256"
        }
      ],
      "stateMutability": "view",
      "type": "function"
    },
    {
      "inputs": [
        {
          "internalType": "uint256",
          "name": "tokenId",
          "type": "uint256"
        },
        {
          "internalType": "uint256",
          "name": "lpTokens",
          "type": "uint256"
        }
      ],
      "name": "borrowLiquidity",
      "outputs": [
        {
          "internalType": "uint256[]",
          "name": "amounts",
          "type": "uint256[]"
        }
      ],
      "stateMutability": "nonpayable",
      "type": "function"
    },
    {
      "inputs": [],
      "name": "borrowRate",
      "outputs": [
        {
          "internalType": "uint256",
          "name": "",
          "type": "uint256"
        }
      ],
      "stateMutability": "view",
      "type": "function"
    },
    {
      "inputs": [],
      "name": "borrowedInvariant",
      "outputs": [
        {
          "internalType": "uint256",
          "name": "",
          "type": "uint256"
        }
      ],
      "stateMutability": "view",
      "type": "function"
    },
    {
      "inputs": [],
      "name": "cfmm",
      "outputs": [
        {
          "internalType": "address",
          "name": "",
          "type": "address"
        }
      ],
      "stateMutability": "view",
      "type": "function"
    },
    {
      "inputs": [],
      "name": "cfmmReserves",
      "outputs": [
        {
          "internalType": "uint256[]",
          "name": "",
          "type": "uint256[]"
        }
      ],
      "stateMutability": "view",
      "type": "function"
    },
    {
      "inputs": [
        {
          "internalType": "uint256",
          "name": "shares",
          "type": "uint256"
        }
      ],
      "name": "convertToAssets",
      "outputs": [
        {
          "internalType": "uint256",
          "name": "",
          "type": "uint256"
        }
      ],
      "stateMutability": "view",
      "type": "function"
    },
    {
      "inputs": [
        {
          "internalType": "uint256",
          "name": "assets",
          "type": "uint256"
        }
      ],
      "name": "convertToShares",
      "outputs": [
        {
          "internalType": "uint256",
          "name": "",
          "type": "uint256"
        }
      ],
      "stateMutability": "view",
      "type": "function"
    },
    {
      "inputs": [],
      "name": "createLoan",
      "outputs": [
        {
          "internalType": "uint256",
          "name": "tokenId",
          "type": "uint256"
        }
      ],
      "stateMutability": "nonpayable",
      "type": "function"
    },
    {
      "inputs": [],
      "name": "decimals",
      "outputs": [
        {
          "internalType": "uint8",
          "name": "",
          "type": "uint8"
        }
      ],
      "stateMutability": "view",
      "type": "function"
    },
    {
      "inputs": [
        {
          "internalType": "uint256",
          "name": "tokenId",
          "type": "uint256"
        },
        {
          "internalType": "uint256[]",
          "name": "amounts",
          "type": "uint256[]"
        },
        {
          "internalType": "address",
          "name": "to",
          "type": "address"
        }
      ],
      "name": "decreaseCollateral",
      "outputs": [
        {
          "internalType": "uint256[]",
          "name": "tokensHeld",
          "type": "uint256[]"
        }
      ],
      "stateMutability": "nonpayable",
      "type": "function"
    },
    {
      "inputs": [
        {
          "internalType": "uint256",
          "name": "assets",
          "type": "uint256"
        },
        {
          "internalType": "address",
          "name": "receiver",
          "type": "address"
        }
      ],
      "name": "deposit",
      "outputs": [
        {
          "internalType": "uint256",
          "name": "shares",
          "type": "uint256"
        }
      ],
      "stateMutability": "nonpayable",
      "type": "function"
    },
    {
      "inputs": [
        {
          "internalType": "address",
          "name": "to",
          "type": "address"
        }
      ],
      "name": "depositNoPull",
      "outputs": [
        {
          "internalType": "uint256",
          "name": "shares",
          "type": "uint256"
        }
      ],
      "stateMutability": "nonpayable",
      "type": "function"
    },
    {
      "inputs": [
        {
          "internalType": "address",
          "name": "to",
          "type": "address"
        },
        {
          "internalType": "uint256[]",
          "name": "amountsDesired",
          "type": "uint256[]"
        },
        {
          "internalType": "uint256[]",
          "name": "amountsMin",
          "type": "uint256[]"
        },
        {
          "internalType": "bytes",
          "name": "data",
          "type": "bytes"
        }
      ],
      "name": "depositReserves",
      "outputs": [
        {
          "internalType": "uint256[]",
          "name": "reserves",
          "type": "uint256[]"
        },
        {
          "internalType": "uint256",
          "name": "shares",
          "type": "uint256"
        }
      ],
      "stateMutability": "nonpayable",
      "type": "function"
    },
    {
      "inputs": [],
      "name": "factory",
      "outputs": [
        {
          "internalType": "address",
          "name": "",
          "type": "address"
        }
      ],
      "stateMutability": "view",
      "type": "function"
    },
    {
      "inputs": [
        {
          "internalType": "uint256",
          "name": "tokenId",
          "type": "uint256"
        }
      ],
      "name": "increaseCollateral",
      "outputs": [
        {
          "internalType": "uint256[]",
          "name": "tokensHeld",
          "type": "uint256[]"
        }
      ],
      "stateMutability": "nonpayable",
      "type": "function"
    },
    {
      "inputs": [],
      "name": "lastBlockNumber",
      "outputs": [
        {
          "internalType": "uint256",
          "name": "",
          "type": "uint256"
        }
      ],
      "stateMutability": "view",
      "type": "function"
    },
    {
      "inputs": [],
      "name": "lastCFMMFeeIndex",
      "outputs": [
        {
          "internalType": "uint256",
          "name": "",
          "type": "uint256"
        }
      ],
      "stateMutability": "view",
      "type": "function"
    },
    {
      "inputs": [],
      "name": "lastCFMMInvariant",
      "outputs": [
        {
          "internalType": "uint256",
          "name": "",
          "type": "uint256"
        }
      ],
      "stateMutability": "view",
      "type": "function"
    },
    {
      "inputs": [],
      "name": "lastCFMMTotalSupply",
      "outputs": [
        {
          "internalType": "uint256",
          "name": "",
          "type": "uint256"
        }
      ],
      "stateMutability": "view",
      "type": "function"
    },
    {
      "inputs": [],
      "name": "lastFeeIndex",
      "outputs": [
        {
          "internalType": "uint256",
          "name": "",
          "type": "uint256"
        }
      ],
      "stateMutability": "view",
      "type": "function"
    },
    {
      "inputs": [
        {
          "internalType": "uint256",
          "name": "tokenId",
          "type": "uint256"
        }
      ],
      "name": "loan",
      "outputs": [
        {
          "internalType": "uint256",
          "name": "id",
          "type": "uint256"
        },
        {
          "internalType": "address",
          "name": "poolId",
          "type": "address"
        },
        {
          "internalType": "uint256[]",
          "name": "tokensHeld",
          "type": "uint256[]"
        },
        {
          "internalType": "uint256",
          "name": "liquidity",
          "type": "uint256"
        },
        {
          "internalType": "uint256",
          "name": "rateIndex",
          "type": "uint256"
        },
        {
          "internalType": "uint256",
          "name": "blockNum",
          "type": "uint256"
        }
      ],
      "stateMutability": "view",
      "type": "function"
    },
    {
      "inputs": [],
      "name": "longStrategy",
      "outputs": [
        {
          "internalType": "address",
          "name": "",
          "type": "address"
        }
      ],
      "stateMutability": "view",
      "type": "function"
    },
    {
      "inputs": [],
      "name": "lpInvariant",
      "outputs": [
        {
          "internalType": "uint256",
          "name": "",
          "type": "uint256"
        }
      ],
      "stateMutability": "view",
      "type": "function"
    },
    {
      "inputs": [],
      "name": "lpTokenBalance",
      "outputs": [
        {
          "internalType": "uint256",
          "name": "",
          "type": "uint256"
        }
      ],
      "stateMutability": "view",
      "type": "function"
    },
    {
      "inputs": [],
      "name": "lpTokenBorrowed",
      "outputs": [
        {
          "internalType": "uint256",
          "name": "",
          "type": "uint256"
        }
      ],
      "stateMutability": "view",
      "type": "function"
    },
    {
      "inputs": [],
      "name": "lpTokenBorrowedPlusInterest",
      "outputs": [
        {
          "internalType": "uint256",
          "name": "",
          "type": "uint256"
        }
      ],
      "stateMutability": "view",
      "type": "function"
    },
    {
      "inputs": [],
      "name": "lpTokenTotal",
      "outputs": [
        {
          "internalType": "uint256",
          "name": "",
          "type": "uint256"
        }
      ],
      "stateMutability": "view",
      "type": "function"
    },
    {
      "inputs": [
        {
          "internalType": "address",
          "name": "",
          "type": "address"
        }
      ],
      "name": "maxDeposit",
      "outputs": [
        {
          "internalType": "uint256",
          "name": "",
          "type": "uint256"
        }
      ],
      "stateMutability": "view",
      "type": "function"
    },
    {
      "inputs": [
        {
          "internalType": "address",
          "name": "",
          "type": "address"
        }
      ],
      "name": "maxMint",
      "outputs": [
        {
          "internalType": "uint256",
          "name": "",
          "type": "uint256"
        }
      ],
      "stateMutability": "view",
      "type": "function"
    },
    {
      "inputs": [
        {
          "internalType": "address",
          "name": "owner",
          "type": "address"
        }
      ],
      "name": "maxRedeem",
      "outputs": [
        {
          "internalType": "uint256",
          "name": "",
          "type": "uint256"
        }
      ],
      "stateMutability": "view",
      "type": "function"
    },
    {
      "inputs": [
        {
          "internalType": "address",
          "name": "owner",
          "type": "address"
        }
      ],
      "name": "maxWithdraw",
      "outputs": [
        {
          "internalType": "uint256",
          "name": "",
          "type": "uint256"
        }
      ],
      "stateMutability": "view",
      "type": "function"
    },
    {
      "inputs": [
        {
          "internalType": "uint256",
          "name": "shares",
          "type": "uint256"
        },
        {
          "internalType": "address",
          "name": "receiver",
          "type": "address"
        }
      ],
      "name": "mint",
      "outputs": [
        {
          "internalType": "uint256",
          "name": "assets",
          "type": "uint256"
        }
      ],
      "stateMutability": "nonpayable",
      "type": "function"
    },
    {
      "inputs": [],
      "name": "name",
      "outputs": [
        {
          "internalType": "string",
          "name": "",
          "type": "string"
        }
      ],
      "stateMutability": "view",
      "type": "function"
    },
    {
      "inputs": [
        {
          "internalType": "uint256",
          "name": "assets",
          "type": "uint256"
        }
      ],
      "name": "previewDeposit",
      "outputs": [
        {
          "internalType": "uint256",
          "name": "",
          "type": "uint256"
        }
      ],
      "stateMutability": "view",
      "type": "function"
    },
    {
      "inputs": [
        {
          "internalType": "uint256",
          "name": "shares",
          "type": "uint256"
        }
      ],
      "name": "previewMint",
      "outputs": [
        {
          "internalType": "uint256",
          "name": "",
          "type": "uint256"
        }
      ],
      "stateMutability": "view",
      "type": "function"
    },
    {
      "inputs": [
        {
          "internalType": "uint256",
          "name": "shares",
          "type": "uint256"
        }
      ],
      "name": "previewRedeem",
      "outputs": [
        {
          "internalType": "uint256",
          "name": "",
          "type": "uint256"
        }
      ],
      "stateMutability": "view",
      "type": "function"
    },
    {
      "inputs": [
        {
          "internalType": "uint256",
          "name": "assets",
          "type": "uint256"
        }
      ],
      "name": "previewWithdraw",
      "outputs": [
        {
          "internalType": "uint256",
          "name": "",
          "type": "uint256"
        }
      ],
      "stateMutability": "view",
      "type": "function"
    },
    {
      "inputs": [],
      "name": "protocol",
      "outputs": [
        {
          "internalType": "address",
          "name": "",
          "type": "address"
        }
      ],
      "stateMutability": "view",
      "type": "function"
    },
    {
      "inputs": [],
      "name": "protocolId",
      "outputs": [
        {
          "internalType": "uint24",
          "name": "",
          "type": "uint24"
        }
      ],
      "stateMutability": "view",
      "type": "function"
    },
    {
      "inputs": [
        {
          "internalType": "uint256",
          "name": "tokenId",
          "type": "uint256"
        },
        {
          "internalType": "int256[]",
          "name": "deltas",
          "type": "int256[]"
        }
      ],
      "name": "rebalanceCollateral",
      "outputs": [
        {
          "internalType": "uint256[]",
          "name": "tokensHeld",
          "type": "uint256[]"
        }
      ],
      "stateMutability": "nonpayable",
      "type": "function"
    },
    {
      "inputs": [
        {
          "internalType": "uint256",
          "name": "shares",
          "type": "uint256"
        },
        {
          "internalType": "address",
          "name": "receiver",
          "type": "address"
        },
        {
          "internalType": "address",
          "name": "owner",
          "type": "address"
        }
      ],
      "name": "redeem",
      "outputs": [
        {
          "internalType": "uint256",
          "name": "assets",
          "type": "uint256"
        }
      ],
      "stateMutability": "nonpayable",
      "type": "function"
    },
    {
      "inputs": [
        {
          "internalType": "uint256",
          "name": "tokenId",
          "type": "uint256"
        },
        {
          "internalType": "uint256",
          "name": "liquidity",
          "type": "uint256"
        }
      ],
      "name": "repayLiquidity",
      "outputs": [
        {
          "internalType": "uint256",
          "name": "liquidityPaid",
          "type": "uint256"
        },
        {
          "internalType": "uint256",
          "name": "lpTokensPaid",
          "type": "uint256"
        },
        {
          "internalType": "uint256[]",
          "name": "amounts",
          "type": "uint256[]"
        }
      ],
      "stateMutability": "nonpayable",
      "type": "function"
    },
    {
      "inputs": [],
      "name": "shortStrategy",
      "outputs": [
        {
          "internalType": "address",
          "name": "",
          "type": "address"
        }
      ],
      "stateMutability": "view",
      "type": "function"
    },
    {
      "inputs": [],
      "name": "symbol",
      "outputs": [
        {
          "internalType": "string",
          "name": "",
          "type": "string"
        }
      ],
      "stateMutability": "view",
      "type": "function"
    },
    {
      "inputs": [],
      "name": "tokenBalances",
      "outputs": [
        {
          "internalType": "uint256[]",
          "name": "",
          "type": "uint256[]"
        }
      ],
      "stateMutability": "view",
      "type": "function"
    },
    {
      "inputs": [],
      "name": "tokens",
      "outputs": [
        {
          "internalType": "address[]",
          "name": "",
          "type": "address[]"
        }
      ],
      "stateMutability": "view",
      "type": "function"
    },
    {
      "inputs": [],
      "name": "totalAssets",
      "outputs": [
        {
          "internalType": "uint256",
          "name": "",
          "type": "uint256"
        }
      ],
      "stateMutability": "view",
      "type": "function"
    },
    {
      "inputs": [],
      "name": "totalInvariant",
      "outputs": [
        {
          "internalType": "uint256",
          "name": "",
          "type": "uint256"
        }
      ],
      "stateMutability": "view",
      "type": "function"
    },
    {
      "inputs": [],
      "name": "totalSupply",
      "outputs": [
        {
          "internalType": "uint256",
          "name": "",
          "type": "uint256"
        }
      ],
      "stateMutability": "view",
      "type": "function"
    },
    {
      "inputs": [
        {
          "internalType": "address",
          "name": "to",
          "type": "address"
        },
        {
          "internalType": "uint256",
          "name": "value",
          "type": "uint256"
        }
      ],
      "name": "transfer",
      "outputs": [
        {
          "internalType": "bool",
          "name": "",
          "type": "bool"
        }
      ],
      "stateMutability": "nonpayable",
      "type": "function"
    },
    {
      "inputs": [
        {
          "internalType": "address",
          "name": "from",
          "type": "address"
        },
        {
          "internalType": "address",
          "name": "to",
          "type": "address"
        },
        {
          "internalType": "uint256",
          "name": "value",
          "type": "uint256"
        }
      ],
      "name": "transferFrom",
      "outputs": [
        {
          "internalType": "bool",
          "name": "",
          "type": "bool"
        }
      ],
      "stateMutability": "nonpayable",
      "type": "function"
    },
    {
      "inputs": [
        {
          "internalType": "uint256",
          "name": "assets",
          "type": "uint256"
        },
        {
          "internalType": "address",
          "name": "receiver",
          "type": "address"
        },
        {
          "internalType": "address",
          "name": "owner",
          "type": "address"
        }
      ],
      "name": "withdraw",
      "outputs": [
        {
          "internalType": "uint256",
          "name": "shares",
          "type": "uint256"
        }
      ],
      "stateMutability": "nonpayable",
      "type": "function"
    },
    {
      "inputs": [
        {
          "internalType": "address",
          "name": "to",
          "type": "address"
        }
      ],
      "name": "withdrawNoPull",
      "outputs": [
        {
          "internalType": "uint256",
          "name": "assets",
          "type": "uint256"
        }
      ],
      "stateMutability": "nonpayable",
      "type": "function"
    },
    {
      "inputs": [
        {
          "internalType": "address",
          "name": "to",
          "type": "address"
        }
      ],
      "name": "withdrawReserves",
      "outputs": [
        {
          "internalType": "uint256[]",
          "name": "reserves",
          "type": "uint256[]"
        },
        {
          "internalType": "uint256",
          "name": "assets",
          "type": "uint256"
        }
      ],
      "stateMutability": "nonpayable",
      "type": "function"
    }
  ],
  "bytecode": "0x60806040523480156200001157600080fd5b50620000276200025060201b620029e31760201c565b6000806200003f620008b260201b620030201760201c565b60020160039054906101000a900473ffffffffffffffffffffffffffffffffffffffff1673ffffffffffffffffffffffffffffffffffffffff1663890357306040518163ffffffff1660e01b815260040160006040518083038186803b158015620000a957600080fd5b505afa158015620000be573d6000803e3d6000fd5b505050506040513d6000823e3d601f19601f82011682018060405250810190620000e9919062000ca6565b9150915060008062000105620008b260201b620030201760201c565b60020160039054906101000a900473ffffffffffffffffffffffffffffffffffffffff1673ffffffffffffffffffffffffffffffffffffffff16631af19f7760e01b85856040516024016200015c92919062000dd1565b604051602081830303815290604052907bffffffffffffffffffffffffffffffffffffffffffffffffffffffff19166020820180517bffffffffffffffffffffffffffffffffffffffffffffffffffffffff8381831617835250505050604051620001c8919062000db8565b600060405180830381855af49150503d806000811462000205576040519150601f19603f3d011682016040523d82523d6000602084013e6200020a565b606091505b50915091508180156200023c57506000815114806200023b5750808060200190518101906200023a919062000c7a565b5b5b6200024657600080fd5b50505050620010cb565b600062000262620008b260201b60201c565b90506000151581601b0160009054906101000a900460ff16151514620002bf576040517f08c379a0000000000000000000000000000000000000000000000000000000008152600401620002b69062000e0c565b60405180910390fd5b600181601b0160006101000a81548160ff0219169083151502179055506040518060400160405280600c81526020017f47616d6d615377617020563100000000000000000000000000000000000000008152508160200190805190602001906200032b929190620008df565b506040518060400160405280600781526020017f47414d412d5631000000000000000000000000000000000000000000000000008152508160210190805190602001906200037b929190620008df565b5060128160220160006101000a81548160ff021916908360ff160217905550338160000160006101000a81548173ffffffffffffffffffffffffffffffffffffffff021916908373ffffffffffffffffffffffffffffffffffffffff1602179055503373ffffffffffffffffffffffffffffffffffffffff1663890357306040518163ffffffff1660e01b815260040160006040518083038186803b1580156200042457600080fd5b505afa15801562000439573d6000803e3d6000fd5b505050506040513d6000823e3d601f19601f8201168201806040525081019062000464919062000bf5565b8460030160008660020160008860010160008a60020160038891906101000a81548173ffffffffffffffffffffffffffffffffffffffff021916908373ffffffffffffffffffffffffffffffffffffffff160217905550879190509080519060200190620004d492919062000970565b508691906101000a81548162ffffff021916908362ffffff1602179055508591906101000a81548173ffffffffffffffffffffffffffffffffffffffff021916908373ffffffffffffffffffffffffffffffffffffffff1602179055505050505060008160020160039054906101000a900473ffffffffffffffffffffffffffffffffffffffff1690508073ffffffffffffffffffffffffffffffffffffffff16634932ed376040518163ffffffff1660e01b815260040160206040518083038186803b158015620005a557600080fd5b505afa158015620005ba573d6000803e3d6000fd5b505050506040513d601f19601f82011682018060405250810190620005e0919062000bc9565b8260040160006101000a81548173ffffffffffffffffffffffffffffffffffffffff021916908373ffffffffffffffffffffffffffffffffffffffff1602179055508073ffffffffffffffffffffffffffffffffffffffff166389c4fa126040518163ffffffff1660e01b815260040160206040518083038186803b1580156200066957600080fd5b505afa1580156200067e573d6000803e3d6000fd5b505050506040513d601f19601f82011682018060405250810190620006a4919062000bc9565b8260050160006101000a81548173ffffffffffffffffffffffffffffffffffffffff021916908373ffffffffffffffffffffffffffffffffffffffff160217905550816001018054905067ffffffffffffffff8111156200072e577f4e487b7100000000000000000000000000000000000000000000000000000000600052604160045260246000fd5b6040519080825280602002602001820160405280156200075d5781602001602082028036833780820191505090505b5082600601908051906020019062000777929190620009ff565b50816001018054905067ffffffffffffffff811115620007c0577f4e487b7100000000000000000000000000000000000000000000000000000000600052604160045260246000fd5b604051908082528060200260200182016040528015620007ef5781602001602082028036833780820191505090505b5082600e01908051906020019062000809929190620009ff565b50670de0b6b3a76400008260100181905550670de0b6b3a76400008260110181905550670de0b6b3a764000082601201819055504382601501819055503382601d0160006101000a81548173ffffffffffffffffffffffffffffffffffffffff021916908373ffffffffffffffffffffffffffffffffffffffff160217905550600182601e0181905550600182601f0181905550670de0b6b3a764000082601a01819055505050565b6000807f58a86ce9af3c88d86c606c50ca486aaedb655aee7dec73f917ade295c9fef44390508091505090565b828054620008ed9062000f79565b90600052602060002090601f0160209004810192826200091157600085556200095d565b82601f106200092c57805160ff19168380011785556200095d565b828001600101855582156200095d579182015b828111156200095c5782518255916020019190600101906200093f565b5b5090506200096c919062000a51565b5090565b828054828255906000526020600020908101928215620009ec579160200282015b82811115620009eb5782518260006101000a81548173ffffffffffffffffffffffffffffffffffffffff021916908373ffffffffffffffffffffffffffffffffffffffff1602179055509160200191906001019062000991565b5b509050620009fb919062000a51565b5090565b82805482825590600052602060002090810192821562000a3e579160200282015b8281111562000a3d57825182559160200191906001019062000a20565b5b50905062000a4d919062000a51565b5090565b5b8082111562000a6c57600081600090555060010162000a52565b5090565b600062000a8762000a818462000e57565b62000e2e565b9050808382526020820190508285602086028201111562000aa757600080fd5b60005b8581101562000adb578162000ac0888262000b2a565b84526020840193506020830192505060018101905062000aaa565b5050509392505050565b600062000afc62000af68462000e86565b62000e2e565b90508281526020810184848401111562000b1557600080fd5b62000b2284828562000f43565b509392505050565b60008151905062000b3b816200107d565b92915050565b600082601f83011262000b5357600080fd5b815162000b6584826020860162000a70565b91505092915050565b60008151905062000b7f8162001097565b92915050565b600082601f83011262000b9757600080fd5b815162000ba984826020860162000ae5565b91505092915050565b60008151905062000bc381620010b1565b92915050565b60006020828403121562000bdc57600080fd5b600062000bec8482850162000b2a565b91505092915050565b6000806000806080858703121562000c0c57600080fd5b600062000c1c8782880162000b2a565b945050602062000c2f8782880162000bb2565b935050604085015167ffffffffffffffff81111562000c4d57600080fd5b62000c5b8782880162000b41565b925050606062000c6e8782880162000b2a565b91505092959194509250565b60006020828403121562000c8d57600080fd5b600062000c9d8482850162000b6e565b91505092915050565b6000806040838503121562000cba57600080fd5b600083015167ffffffffffffffff81111562000cd557600080fd5b62000ce38582860162000b85565b925050602083015167ffffffffffffffff81111562000d0157600080fd5b62000d0f8582860162000b85565b9150509250929050565b600062000d268262000ebc565b62000d32818562000ec7565b935062000d4481856020860162000f43565b62000d4f8162001043565b840191505092915050565b600062000d678262000ebc565b62000d73818562000ed8565b935062000d8581856020860162000f43565b80840191505092915050565b600062000da060068362000ee3565b915062000dad8262001054565b602082019050919050565b600062000dc6828462000d5a565b915081905092915050565b6000604082019050818103600083015262000ded818562000d19565b9050818103602083015262000e03818462000d19565b90509392505050565b6000602082019050818103600083015262000e278162000d91565b9050919050565b600062000e3a62000e4d565b905062000e48828262000faf565b919050565b6000604051905090565b600067ffffffffffffffff82111562000e755762000e7462001014565b5b602082029050602081019050919050565b600067ffffffffffffffff82111562000ea45762000ea362001014565b5b62000eaf8262001043565b9050602081019050919050565b600081519050919050565b600082825260208201905092915050565b600081905092915050565b600082825260208201905092915050565b600062000f018262000f14565b9050919050565b60008115159050919050565b600073ffffffffffffffffffffffffffffffffffffffff82169050919050565b600062ffffff82169050919050565b60005b8381101562000f6357808201518184015260208101905062000f46565b8381111562000f73576000848401525b50505050565b6000600282049050600182168062000f9257607f821691505b6020821081141562000fa95762000fa862000fe5565b5b50919050565b62000fba8262001043565b810181811067ffffffffffffffff8211171562000fdc5762000fdb62001014565b5b80604052505050565b7f4e487b7100000000000000000000000000000000000000000000000000000000600052602260045260246000fd5b7f4e487b7100000000000000000000000000000000000000000000000000000000600052604160045260246000fd5b6000601f19601f8301169050919050565b7f47505f5345540000000000000000000000000000000000000000000000000000600082015250565b620010888162000ef4565b81146200109457600080fd5b50565b620010a28162000f08565b8114620010ae57600080fd5b50565b620010bc8162000f34565b8114620010c857600080fd5b50565b614b0580620010db6000396000f3fe608060405234801561001057600080fd5b50600436106103995760003560e01c806370a08231116101e9578063ba0876521161010f578063da1f12ab116100ad578063e5ca93d41161007c578063e5ca93d414610bff578063ea940b1d14610c1d578063ef8b30f714610c4d578063f92f445e14610c7d57610399565b8063da1f12ab14610b61578063db02f9cb14610b7f578063dd62ed3e14610bb1578063e1159b2d14610be157610399565b8063c6e6f592116100e9578063c6e6f59214610ab3578063c914b43714610ae3578063ce96cb7714610b01578063d905777e14610b3157610399565b8063ba08765214610a35578063c45a015514610a65578063c63d75b614610a8357610399565b806395d89b4111610187578063acf615d711610156578063acf615d714610987578063b3d7f6b9146109a5578063b460af94146109d5578063b8a8383414610a0557610399565b806395d89b41146108fd5780639d63848a1461091b578063a9059cbb14610939578063a94e6e571461096957610399565b806389f7fc44116101c357806389f7fc44146108735780638ce744261461089157806394bf804d146108af578063958ae690146108df57610399565b806370a082311461080757806387b9f4131461083757806389c4fa121461085557610399565b80632a9bc3f6116102ce5780634932ed371161026c57806365418ef51161023b57806365418ef51461076b57806365ec1a451461079b5780636e553f65146107b95780637007d7da146107e957610399565b80634932ed37146106ce5780634cdad506146106ec57806354fe2a961461071c5780636223dd6c1461074d57610399565b8063365a5306116102a8578063365a53061461062d57806338d52e0f14610662578063402d267d1461068057806344dcb671146106b057610399565b80632a9bc3f6146105c15780633035aa9c146105f1578063313ce5671461060f57610399565b80630cfba8eb1161033b578063192fdf1011610315578063192fdf101461051357806323b872dd146105435780632552317c1461057357806328cad17f1461059157610399565b80630cfba8eb146104a65780630e3bc974146104d757806318160ddd146104f557610399565b8063095ea7b311610377578063095ea7b31461040a5780630a28a4771461043a5780630a9b23101461046a5780630ab3ee111461048857610399565b806301e1d1141461039e57806306fdde03146103bc57806307a2d13a146103da575b600080fd5b6103a6610c9b565b6040516103b39190614372565b60405180910390f35b6103c4610da3565b6040516103d191906142d5565b60405180910390f35b6103f460048036038101906103ef9190613b99565b610e3e565b6040516104019190614372565b60405180910390f35b610424600480360381019061041f9190613ac8565b610e80565b60405161043191906142ba565b60405180910390f35b610454600480360381019061044f9190613b99565b610f7b565b6040516104619190614372565b60405180910390f35b610472610f8d565b60405161047f9190614268565b60405180910390f35b610490610fee565b60405161049d9190614372565b60405180910390f35b6104c060048036038101906104bb91906138b7565b611001565b6040516104ce92919061428a565b60405180910390f35b6104df61113b565b6040516104ec9190614268565b60405180910390f35b6104fd61119c565b60405161050a9190614372565b60405180910390f35b61052d600480360381019061052891906138b7565b6111af565b60405161053a9190614372565b60405180910390f35b61055d60048036038101906105589190613945565b6112e5565b60405161056a91906142ba565b60405180910390f35b61057b6114bc565b6040516105889190614372565b60405180910390f35b6105ab60048036038101906105a69190613d3a565b6114cf565b6040516105b89190614268565b60405180910390f35b6105db60048036038101906105d69190613c76565b611608565b6040516105e89190614268565b60405180910390f35b6105f9611744565b6040516106069190614125565b60405180910390f35b610617611777565b604051610624919061452e565b60405180910390f35b61064760048036038101906106429190613b99565b611797565b604051610659969594939291906143ed565b60405180910390f35b61066a611865565b6040516106779190614125565b60405180910390f35b61069a600480360381019061069591906138b7565b611898565b6040516106a79190614372565b60405180910390f35b6106b86118ea565b6040516106c59190614372565b60405180910390f35b6106d66118fd565b6040516106e39190614125565b60405180910390f35b61070660048036038101906107019190613b99565b611930565b6040516107139190614372565b60405180910390f35b61073660048036038101906107319190613994565b611942565b60405161074492919061428a565b60405180910390f35b610755611a8f565b6040516107629190614372565b60405180910390f35b610785600480360381019061078091906138b7565b611aa2565b6040516107929190614372565b60405180910390f35b6107a3611bd8565b6040516107b09190614372565b60405180910390f35b6107d360048036038101906107ce9190613beb565b611c45565b6040516107e09190614372565b60405180910390f35b6107f1611d7e565b6040516107fe9190614372565b60405180910390f35b610821600480360381019061081c91906138b7565b611d91565b60405161082e9190614372565b60405180910390f35b61083f611de3565b60405161084c9190614372565b60405180910390f35b61085d611df6565b60405161086a9190614125565b60405180910390f35b61087b611e29565b6040516108889190614372565b60405180910390f35b610899611e3c565b6040516108a69190614125565b60405180910390f35b6108c960048036038101906108c49190613beb565b611e6f565b6040516108d69190614372565b60405180910390f35b6108e7611fa8565b6040516108f49190614372565b60405180910390f35b610905611fbb565b60405161091291906142d5565b60405180910390f35b610923612056565b6040516109309190614246565b60405180910390f35b610953600480360381019061094e9190613ac8565b6120ed565b60405161096091906142ba565b60405180910390f35b610971612111565b60405161097e9190614372565b60405180910390f35b61098f612124565b60405161099c9190614372565b60405180910390f35b6109bf60048036038101906109ba9190613b99565b612137565b6040516109cc9190614372565b60405180910390f35b6109ef60048036038101906109ea9190613c27565b612149565b6040516109fc9190614372565b60405180910390f35b610a1f6004803603810190610a1a9190613b99565b612285565b604051610a2c9190614268565b60405180910390f35b610a4f6004803603810190610a4a9190613c27565b6123bb565b604051610a5c9190614372565b60405180910390f35b610a6d6124f7565b604051610a7a9190614125565b60405180910390f35b610a9d6004803603810190610a9891906138b7565b61252a565b604051610aaa9190614372565b60405180910390f35b610acd6004803603810190610ac89190613b99565b612554565b604051610ada9190614372565b60405180910390f35b610aeb6125a7565b604051610af89190614372565b60405180910390f35b610b1b6004803603810190610b1691906138b7565b6125ba565b604051610b289190614372565b60405180910390f35b610b4b6004803603810190610b4691906138b7565b612614565b604051610b589190614372565b60405180910390f35b610b69612666565b604051610b769190614357565b60405180910390f35b610b996004803603810190610b949190613d3a565b612688565b604051610ba8939291906144f0565b60405180910390f35b610bcb6004803603810190610bc69190613909565b6127c9565b604051610bd89190614372565b60405180910390f35b610be9612859565b604051610bf69190614372565b60405180910390f35b610c0761286c565b604051610c149190614372565b60405180910390f35b610c376004803603810190610c329190613cce565b61287f565b604051610c449190614268565b60405180910390f35b610c676004803603810190610c629190613b99565b6129be565b604051610c749190614372565b60405180910390f35b610c856129d0565b604051610c929190614372565b60405180910390f35b600080610ca6613020565b90508060050160009054906101000a900473ffffffffffffffffffffffffffffffffffffffff1673ffffffffffffffffffffffffffffffffffffffff16636ee4cffd8260030160009054906101000a900473ffffffffffffffffffffffffffffffffffffffff1683600b0154846007015485600801548660130154876014015488601501546040518863ffffffff1660e01b8152600401610d4d97969594939291906141d7565b60206040518083038186803b158015610d6557600080fd5b505afa158015610d79573d6000803e3d6000fd5b505050506040513d601f19601f82011682018060405250810190610d9d9190613bc2565b91505090565b6060610dad613020565b6020018054610dbb9061487f565b80601f0160208091040260200160405190810160405280929190818152602001828054610de79061487f565b8015610e345780601f10610e0957610100808354040283529160200191610e34565b820191906000526020600020905b815481529060010190602001808311610e1757829003601f168201915b5050505050905090565b600080610e4961119c565b905060008114610e765780610e5c610c9b565b84610e679190614741565b610e719190614710565b610e78565b825b915050919050565b600081610e8b613020565b60250160003373ffffffffffffffffffffffffffffffffffffffff1673ffffffffffffffffffffffffffffffffffffffff16815260200190815260200160002060008573ffffffffffffffffffffffffffffffffffffffff1673ffffffffffffffffffffffffffffffffffffffff168152602001908152602001600020819055508273ffffffffffffffffffffffffffffffffffffffff163373ffffffffffffffffffffffffffffffffffffffff167f8c5be1e5ebec7d5bd14f71427d1e84f3dd0314c0f7b2291e5b200ac8c7c3b92584604051610f699190614372565b60405180910390a36001905092915050565b6000610f8682612554565b9050919050565b6060610f97613020565b600e01805480602002602001604051908101604052809291908181526020018280548015610fe457602002820191906000526020600020905b815481526020019060010190808311610fd0575b5050505050905090565b6000610ff8613020565b60070154905090565b60606000806000611010613020565b60050160009054906101000a900473ffffffffffffffffffffffffffffffffffffffff1673ffffffffffffffffffffffffffffffffffffffff16634054bf2460e01b866040516024016110639190614125565b604051602081830303815290604052907bffffffffffffffffffffffffffffffffffffffffffffffffffffffff19166020820180517bffffffffffffffffffffffffffffffffffffffffffffffffffffffff83818316178352505050506040516110cd919061410e565b600060405180830381855af49150503d8060008114611108576040519150601f19603f3d011682016040523d82523d6000602084013e61110d565b606091505b50915091508161111c57600080fd5b808060200190518101906111309190613b45565b935093505050915091565b6060611145613020565b60060180548060200260200160405190810160405280929190818152602001828054801561119257602002820191906000526020600020905b81548152602001906001019080831161117e575b5050505050905090565b60006111a6613020565b60230154905090565b60008060006111bc613020565b60050160009054906101000a900473ffffffffffffffffffffffffffffffffffffffff1673ffffffffffffffffffffffffffffffffffffffff1663e62d2eeb60e01b8560405160240161120f9190614125565b604051602081830303815290604052907bffffffffffffffffffffffffffffffffffffffffffffffffffffffff19166020820180517bffffffffffffffffffffffffffffffffffffffffffffffffffffffff8381831617835250505050604051611279919061410e565b600060405180830381855af49150503d80600081146112b4576040519150601f19603f3d011682016040523d82523d6000602084013e6112b9565b606091505b5091509150816112c857600080fd5b808060200190518101906112dc9190613bc2565b92505050919050565b6000806112f0613020565b90507fffffffffffffffffffffffffffffffffffffffffffffffffffffffffffffffff8160250160008773ffffffffffffffffffffffffffffffffffffffff1673ffffffffffffffffffffffffffffffffffffffff16815260200190815260200160002060003373ffffffffffffffffffffffffffffffffffffffff1673ffffffffffffffffffffffffffffffffffffffff16815260200190815260200160002054146114a457828160250160008773ffffffffffffffffffffffffffffffffffffffff1673ffffffffffffffffffffffffffffffffffffffff16815260200190815260200160002060003373ffffffffffffffffffffffffffffffffffffffff1673ffffffffffffffffffffffffffffffffffffffff16815260200190815260200160002054611421919061479b565b8160250160008773ffffffffffffffffffffffffffffffffffffffff1673ffffffffffffffffffffffffffffffffffffffff16815260200190815260200160002060003373ffffffffffffffffffffffffffffffffffffffff1673ffffffffffffffffffffffffffffffffffffffff168152602001908152602001600020819055505b6114b08186868661304d565b60019150509392505050565b60006114c6613020565b60150154905090565b60606000806114dc613020565b60040160009054906101000a900473ffffffffffffffffffffffffffffffffffffffff1673ffffffffffffffffffffffffffffffffffffffff1663a4fa646f60e01b86866040516024016115319291906144c7565b604051602081830303815290604052907bffffffffffffffffffffffffffffffffffffffffffffffffffffffff19166020820180517bffffffffffffffffffffffffffffffffffffffffffffffffffffffff838183161783525050505060405161159b919061410e565b600060405180830381855af49150503d80600081146115d6576040519150601f19603f3d011682016040523d82523d6000602084013e6115db565b606091505b5091509150816115ea57600080fd5b808060200190518101906115fe9190613b04565b9250505092915050565b6060600080611615613020565b60040160009054906101000a900473ffffffffffffffffffffffffffffffffffffffff1673ffffffffffffffffffffffffffffffffffffffff1663ab790c7860e01b87878760405160240161166c93929190614455565b604051602081830303815290604052907bffffffffffffffffffffffffffffffffffffffffffffffffffffffff19166020820180517bffffffffffffffffffffffffffffffffffffffffffffffffffffffff83818316178352505050506040516116d6919061410e565b600060405180830381855af49150503d8060008114611711576040519150601f19603f3d011682016040523d82523d6000602084013e611716565b606091505b50915091508161172557600080fd5b808060200190518101906117399190613b04565b925050509392505050565b600061174e613020565b60030160009054906101000a900473ffffffffffffffffffffffffffffffffffffffff16905090565b6000611781613020565b60220160009054906101000a900460ff16905090565b60008060606000806000806117aa613020565b601c016000898152602001908152602001600020905080600001548160010160009054906101000a900473ffffffffffffffffffffffffffffffffffffffff16826002018360040154846006015485600701548380548060200260200160405190810160405280929190818152602001828054801561184857602002820191906000526020600020905b815481526020019060010190808311611834575b505050505093509650965096509650965096505091939550919395565b600061186f613020565b60030160009054906101000a900473ffffffffffffffffffffffffffffffffffffffff16905090565b6000806118a3610c9b565b11806118b6575060006118b461119c565b145b6118c15760006118e3565b7fffffffffffffffffffffffffffffffffffffffffffffffffffffffffffffffff5b9050919050565b60006118f4613020565b600a0154905090565b6000611907613020565b60040160009054906101000a900473ffffffffffffffffffffffffffffffffffffffff16905090565b600061193b82610e3e565b9050919050565b60606000806000611951613020565b60050160009054906101000a900473ffffffffffffffffffffffffffffffffffffffff1673ffffffffffffffffffffffffffffffffffffffff166354d86e3f60e01b8c8c8c8c8c8c8c6040516024016119b09796959493929190614177565b604051602081830303815290604052907bffffffffffffffffffffffffffffffffffffffffffffffffffffffff19166020820180517bffffffffffffffffffffffffffffffffffffffffffffffffffffffff8381831617835250505050604051611a1a919061410e565b600060405180830381855af49150503d8060008114611a55576040519150601f19603f3d011682016040523d82523d6000602084013e611a5a565b606091505b509150915081611a6957600080fd5b80806020019051810190611a7d9190613b45565b93509350505097509795505050505050565b6000611a99613020565b600d0154905090565b6000806000611aaf613020565b60050160009054906101000a900473ffffffffffffffffffffffffffffffffffffffff1673ffffffffffffffffffffffffffffffffffffffff16635b35b5b460e01b85604051602401611b029190614125565b604051602081830303815290604052907bffffffffffffffffffffffffffffffffffffffffffffffffffffffff19166020820180517bffffffffffffffffffffffffffffffffffffffffffffffffffffffff8381831617835250505050604051611b6c919061410e565b600060405180830381855af49150503d8060008114611ba7576040519150601f19603f3d011682016040523d82523d6000602084013e611bac565b606091505b509150915081611bbb57600080fd5b80806020019051810190611bcf9190613bc2565b92505050919050565b6000611be261325f565b611bea6132bf565b90503373ffffffffffffffffffffffffffffffffffffffff167fff6a5b0e4cacd5965a6a32e6b962e1c85c90ea06d047a28293fe91759a79f28982604051611c329190614372565b60405180910390a2611c426134a2565b90565b6000806000611c52613020565b60050160009054906101000a900473ffffffffffffffffffffffffffffffffffffffff1673ffffffffffffffffffffffffffffffffffffffff1663463cd97060e01b8686604051602401611ca792919061438d565b604051602081830303815290604052907bffffffffffffffffffffffffffffffffffffffffffffffffffffffff19166020820180517bffffffffffffffffffffffffffffffffffffffffffffffffffffffff8381831617835250505050604051611d11919061410e565b600060405180830381855af49150503d8060008114611d4c576040519150601f19603f3d011682016040523d82523d6000602084013e611d51565b606091505b509150915081611d6057600080fd5b80806020019051810190611d749190613bc2565b9250505092915050565b6000611d88613020565b60100154905090565b6000611d9b613020565b60240160008373ffffffffffffffffffffffffffffffffffffffff1673ffffffffffffffffffffffffffffffffffffffff168152602001908152602001600020549050919050565b6000611ded613020565b60140154905090565b6000611e00613020565b60050160009054906101000a900473ffffffffffffffffffffffffffffffffffffffff16905090565b6000611e33613020565b60110154905090565b6000611e46613020565b60020160039054906101000a900473ffffffffffffffffffffffffffffffffffffffff16905090565b6000806000611e7c613020565b60050160009054906101000a900473ffffffffffffffffffffffffffffffffffffffff1673ffffffffffffffffffffffffffffffffffffffff1663e855aee560e01b8686604051602401611ed192919061438d565b604051602081830303815290604052907bffffffffffffffffffffffffffffffffffffffffffffffffffffffff19166020820180517bffffffffffffffffffffffffffffffffffffffffffffffffffffffff8381831617835250505050604051611f3b919061410e565b600060405180830381855af49150503d8060008114611f76576040519150601f19603f3d011682016040523d82523d6000602084013e611f7b565b606091505b509150915081611f8a57600080fd5b80806020019051810190611f9e9190613bc2565b9250505092915050565b6000611fb2613020565b60120154905090565b6060611fc5613020565b6021018054611fd39061487f565b80601f0160208091040260200160405190810160405280929190818152602001828054611fff9061487f565b801561204c5780601f106120215761010080835404028352916020019161204c565b820191906000526020600020905b81548152906001019060200180831161202f57829003601f168201915b5050505050905090565b6060612060613020565b6001018054806020026020016040519081016040528092919081815260200182805480156120e357602002820191906000526020600020905b8160009054906101000a900473ffffffffffffffffffffffffffffffffffffffff1673ffffffffffffffffffffffffffffffffffffffff1681526020019060010190808311612099575b5050505050905090565b6000806120f8613020565b90506121068133868661304d565b600191505092915050565b600061211b613020565b60090154905090565b600061212e613020565b600c0154905090565b600061214282610e3e565b9050919050565b6000806000612156613020565b60050160009054906101000a900473ffffffffffffffffffffffffffffffffffffffff1673ffffffffffffffffffffffffffffffffffffffff16630ca4237960e01b8787876040516024016121ad939291906143b6565b604051602081830303815290604052907bffffffffffffffffffffffffffffffffffffffffffffffffffffffff19166020820180517bffffffffffffffffffffffffffffffffffffffffffffffffffffffff8381831617835250505050604051612217919061410e565b600060405180830381855af49150503d8060008114612252576040519150601f19603f3d011682016040523d82523d6000602084013e612257565b606091505b50915091508161226657600080fd5b8080602001905181019061227a9190613bc2565b925050509392505050565b6060600080612292613020565b60040160009054906101000a900473ffffffffffffffffffffffffffffffffffffffff1673ffffffffffffffffffffffffffffffffffffffff1663b35dceab60e01b856040516024016122e59190614372565b604051602081830303815290604052907bffffffffffffffffffffffffffffffffffffffffffffffffffffffff19166020820180517bffffffffffffffffffffffffffffffffffffffffffffffffffffffff838183161783525050505060405161234f919061410e565b600060405180830381855af49150503d806000811461238a576040519150601f19603f3d011682016040523d82523d6000602084013e61238f565b606091505b50915091508161239e57600080fd5b808060200190518101906123b29190613b04565b92505050919050565b60008060006123c8613020565b60050160009054906101000a900473ffffffffffffffffffffffffffffffffffffffff1673ffffffffffffffffffffffffffffffffffffffff16633337cd8560e01b87878760405160240161241f939291906143b6565b604051602081830303815290604052907bffffffffffffffffffffffffffffffffffffffffffffffffffffffff19166020820180517bffffffffffffffffffffffffffffffffffffffffffffffffffffffff8381831617835250505050604051612489919061410e565b600060405180830381855af49150503d80600081146124c4576040519150601f19603f3d011682016040523d82523d6000602084013e6124c9565b606091505b5091509150816124d857600080fd5b808060200190518101906124ec9190613bc2565b925050509392505050565b6000612501613020565b60000160009054906101000a900473ffffffffffffffffffffffffffffffffffffffff16905090565b60007fffffffffffffffffffffffffffffffffffffffffffffffffffffffffffffffff9050919050565b60008061255f61119c565b9050600061256b610c9b565b9050600082148061257c5750600081145b61259c5780828561258d9190614741565b6125979190614710565b61259e565b835b92505050919050565b60006125b1613020565b600f0154905090565b600061260d6125c7613020565b60240160008473ffffffffffffffffffffffffffffffffffffffff1673ffffffffffffffffffffffffffffffffffffffff16815260200190815260200160002054610e3e565b9050919050565b600061261e613020565b60240160008373ffffffffffffffffffffffffffffffffffffffff1673ffffffffffffffffffffffffffffffffffffffff168152602001908152602001600020549050919050565b6000612670613020565b60020160009054906101000a900462ffffff16905090565b6000806060600080612698613020565b60040160009054906101000a900473ffffffffffffffffffffffffffffffffffffffff1673ffffffffffffffffffffffffffffffffffffffff166337d1b3d660e01b88886040516024016126ed9291906144c7565b604051602081830303815290604052907bffffffffffffffffffffffffffffffffffffffffffffffffffffffff19166020820180517bffffffffffffffffffffffffffffffffffffffffffffffffffffffff8381831617835250505050604051612757919061410e565b600060405180830381855af49150503d8060008114612792576040519150601f19603f3d011682016040523d82523d6000602084013e612797565b606091505b5091509150816127a657600080fd5b808060200190518101906127ba9190613d76565b94509450945050509250925092565b60006127d3613020565b60250160008473ffffffffffffffffffffffffffffffffffffffff1673ffffffffffffffffffffffffffffffffffffffff16815260200190815260200160002060008373ffffffffffffffffffffffffffffffffffffffff1673ffffffffffffffffffffffffffffffffffffffff16815260200190815260200160002054905092915050565b6000612863613020565b60080154905090565b6000612876613020565b600b0154905090565b606060008061288c613020565b60040160009054906101000a900473ffffffffffffffffffffffffffffffffffffffff1673ffffffffffffffffffffffffffffffffffffffff16630d5cf12b60e01b888888886040516024016128e59493929190614487565b604051602081830303815290604052907bffffffffffffffffffffffffffffffffffffffffffffffffffffffff19166020820180517bffffffffffffffffffffffffffffffffffffffffffffffffffffffff838183161783525050505060405161294f919061410e565b600060405180830381855af49150503d806000811461298a576040519150601f19603f3d011682016040523d82523d6000602084013e61298f565b606091505b50915091508161299e57600080fd5b808060200190518101906129b29190613b04565b92505050949350505050565b60006129c982612554565b9050919050565b60006129da613020565b60130154905090565b60006129ed613020565b90506000151581601b0160009054906101000a900460ff16151514612a47576040517f08c379a0000000000000000000000000000000000000000000000000000000008152600401612a3e90614317565b60405180910390fd5b600181601b0160006101000a81548160ff0219169083151502179055506040518060400160405280600c81526020017f47616d6d61537761702056310000000000000000000000000000000000000000815250816020019080519060200190612ab19291906134b5565b506040518060400160405280600781526020017f47414d412d563100000000000000000000000000000000000000000000000000815250816021019080519060200190612aff9291906134b5565b5060128160220160006101000a81548160ff021916908360ff160217905550338160000160006101000a81548173ffffffffffffffffffffffffffffffffffffffff021916908373ffffffffffffffffffffffffffffffffffffffff1602179055503373ffffffffffffffffffffffffffffffffffffffff1663890357306040518163ffffffff1660e01b815260040160006040518083038186803b158015612ba757600080fd5b505afa158015612bbb573d6000803e3d6000fd5b505050506040513d6000823e3d601f19601f82011682018060405250810190612be49190613a4d565b8460030160008660020160008860010160008a60020160038891906101000a81548173ffffffffffffffffffffffffffffffffffffffff021916908373ffffffffffffffffffffffffffffffffffffffff160217905550879190509080519060200190612c5292919061353b565b508691906101000a81548162ffffff021916908362ffffff1602179055508591906101000a81548173ffffffffffffffffffffffffffffffffffffffff021916908373ffffffffffffffffffffffffffffffffffffffff1602179055505050505060008160020160039054906101000a900473ffffffffffffffffffffffffffffffffffffffff1690508073ffffffffffffffffffffffffffffffffffffffff16634932ed376040518163ffffffff1660e01b815260040160206040518083038186803b158015612d2257600080fd5b505afa158015612d36573d6000803e3d6000fd5b505050506040513d601f19601f82011682018060405250810190612d5a91906138e0565b8260040160006101000a81548173ffffffffffffffffffffffffffffffffffffffff021916908373ffffffffffffffffffffffffffffffffffffffff1602179055508073ffffffffffffffffffffffffffffffffffffffff166389c4fa126040518163ffffffff1660e01b815260040160206040518083038186803b158015612de257600080fd5b505afa158015612df6573d6000803e3d6000fd5b505050506040513d601f19601f82011682018060405250810190612e1a91906138e0565b8260050160006101000a81548173ffffffffffffffffffffffffffffffffffffffff021916908373ffffffffffffffffffffffffffffffffffffffff160217905550816001018054905067ffffffffffffffff811115612ea3577f4e487b7100000000000000000000000000000000000000000000000000000000600052604160045260246000fd5b604051908082528060200260200182016040528015612ed15781602001602082028036833780820191505090505b50826006019080519060200190612ee99291906135c5565b50816001018054905067ffffffffffffffff811115612f31577f4e487b7100000000000000000000000000000000000000000000000000000000600052604160045260246000fd5b604051908082528060200260200182016040528015612f5f5781602001602082028036833780820191505090505b5082600e019080519060200190612f779291906135c5565b50670de0b6b3a76400008260100181905550670de0b6b3a76400008260110181905550670de0b6b3a764000082601201819055504382601501819055503382601d0160006101000a81548173ffffffffffffffffffffffffffffffffffffffff021916908373ffffffffffffffffffffffffffffffffffffffff160217905550600182601e0181905550600182601f0181905550670de0b6b3a764000082601a01819055505050565b6000807f58a86ce9af3c88d86c606c50ca486aaedb655aee7dec73f917ade295c9fef44390508091505090565b808460240160008573ffffffffffffffffffffffffffffffffffffffff1673ffffffffffffffffffffffffffffffffffffffff16815260200190815260200160002054116130d0576040517f08c379a00000000000000000000000000000000000000000000000000000000081526004016130c7906142f7565b60405180910390fd5b808460240160008573ffffffffffffffffffffffffffffffffffffffff1673ffffffffffffffffffffffffffffffffffffffff1681526020019081526020016000205461311d919061479b565b8460240160008573ffffffffffffffffffffffffffffffffffffffff1673ffffffffffffffffffffffffffffffffffffffff16815260200190815260200160002081905550808460240160008473ffffffffffffffffffffffffffffffffffffffff1673ffffffffffffffffffffffffffffffffffffffff168152602001908152602001600020546131af91906146ba565b8460240160008473ffffffffffffffffffffffffffffffffffffffff1673ffffffffffffffffffffffffffffffffffffffff168152602001908152602001600020819055508173ffffffffffffffffffffffffffffffffffffffff168373ffffffffffffffffffffffffffffffffffffffff167fddf252ad1be2c89b69c2b068fc378daa952ba7f163c4a11628f55a4df523b3ef836040516132519190614372565b60405180910390a350505050565b6000613269613020565b9050600181601f0154146132b2576040517f08c379a00000000000000000000000000000000000000000000000000000000081526004016132a990614337565b60405180910390fd5b600081601f018190555050565b6000806132ca613020565b9050600081601e0160008154809291906132e3906148e2565b9190505590503330826040516020016132fe93929190614140565b6040516020818303038152906040528051906020012060001c92506040518061010001604052808281526020013073ffffffffffffffffffffffffffffffffffffffff168152602001836001018054905067ffffffffffffffff81111561338e577f4e487b7100000000000000000000000000000000000000000000000000000000600052604160045260246000fd5b6040519080825280602002602001820160405280156133bc5781602001602082028036833780820191505090505b508152602001600081526020016000815260200160008152602001836010015481526020014381525082601c0160008581526020019081526020016000206000820151816000015560208201518160010160006101000a81548173ffffffffffffffffffffffffffffffffffffffff021916908373ffffffffffffffffffffffffffffffffffffffff16021790555060408201518160020190805190602001906134679291906135c5565b50606082015181600301556080820151816004015560a0820151816005015560c0820151816006015560e08201518160070155905050505090565b60016134ac613020565b601f0181905550565b8280546134c19061487f565b90600052602060002090601f0160209004810192826134e3576000855561352a565b82601f106134fc57805160ff191683800117855561352a565b8280016001018555821561352a579182015b8281111561352957825182559160200191906001019061350e565b5b5090506135379190613612565b5090565b8280548282559060005260206000209081019282156135b4579160200282015b828111156135b35782518260006101000a81548173ffffffffffffffffffffffffffffffffffffffff021916908373ffffffffffffffffffffffffffffffffffffffff1602179055509160200191906001019061355b565b5b5090506135c19190613612565b5090565b828054828255906000526020600020908101928215613601579160200282015b828111156136005782518255916020019190600101906135e5565b5b50905061360e9190613612565b5090565b5b8082111561362b576000816000905550600101613613565b5090565b600061364261363d8461456e565b614549565b9050808382526020820190508285602086028201111561366157600080fd5b60005b858110156136915781613677888261371c565b845260208401935060208301925050600181019050613664565b5050509392505050565b60006136ae6136a98461459a565b614549565b905080838252602082019050828560208602820111156136cd57600080fd5b60005b858110156136fd57816136e388826138a2565b8452602084019350602083019250506001810190506136d0565b5050509392505050565b60008135905061371681614a73565b92915050565b60008151905061372b81614a73565b92915050565b600082601f83011261374257600080fd5b815161375284826020860161362f565b91505092915050565b60008083601f84011261376d57600080fd5b8235905067ffffffffffffffff81111561378657600080fd5b60208301915083602082028301111561379e57600080fd5b9250929050565b60008083601f8401126137b757600080fd5b8235905067ffffffffffffffff8111156137d057600080fd5b6020830191508360208202830111156137e857600080fd5b9250929050565b600082601f83011261380057600080fd5b815161381084826020860161369b565b91505092915050565b60008083601f84011261382b57600080fd5b8235905067ffffffffffffffff81111561384457600080fd5b60208301915083600182028301111561385c57600080fd5b9250929050565b60008135905061387281614a8a565b92915050565b60008151905061388781614aa1565b92915050565b60008135905061389c81614ab8565b92915050565b6000815190506138b181614ab8565b92915050565b6000602082840312156138c957600080fd5b60006138d784828501613707565b91505092915050565b6000602082840312156138f257600080fd5b60006139008482850161371c565b91505092915050565b6000806040838503121561391c57600080fd5b600061392a85828601613707565b925050602061393b85828601613707565b9150509250929050565b60008060006060848603121561395a57600080fd5b600061396886828701613707565b935050602061397986828701613707565b925050604061398a8682870161388d565b9150509250925092565b60008060008060008060006080888a0312156139af57600080fd5b60006139bd8a828b01613707565b975050602088013567ffffffffffffffff8111156139da57600080fd5b6139e68a828b016137a5565b9650965050604088013567ffffffffffffffff811115613a0557600080fd5b613a118a828b016137a5565b9450945050606088013567ffffffffffffffff811115613a3057600080fd5b613a3c8a828b01613819565b925092505092959891949750929550565b60008060008060808587031215613a6357600080fd5b6000613a718782880161371c565b9450506020613a8287828801613878565b935050604085015167ffffffffffffffff811115613a9f57600080fd5b613aab87828801613731565b9250506060613abc8782880161371c565b91505092959194509250565b60008060408385031215613adb57600080fd5b6000613ae985828601613707565b9250506020613afa8582860161388d565b9150509250929050565b600060208284031215613b1657600080fd5b600082015167ffffffffffffffff811115613b3057600080fd5b613b3c848285016137ef565b91505092915050565b60008060408385031215613b5857600080fd5b600083015167ffffffffffffffff811115613b7257600080fd5b613b7e858286016137ef565b9250506020613b8f858286016138a2565b9150509250929050565b600060208284031215613bab57600080fd5b6000613bb98482850161388d565b91505092915050565b600060208284031215613bd457600080fd5b6000613be2848285016138a2565b91505092915050565b60008060408385031215613bfe57600080fd5b6000613c0c8582860161388d565b9250506020613c1d85828601613707565b9150509250929050565b600080600060608486031215613c3c57600080fd5b6000613c4a8682870161388d565b9350506020613c5b86828701613707565b9250506040613c6c86828701613707565b9150509250925092565b600080600060408486031215613c8b57600080fd5b6000613c998682870161388d565b935050602084013567ffffffffffffffff811115613cb657600080fd5b613cc28682870161375b565b92509250509250925092565b60008060008060608587031215613ce457600080fd5b6000613cf28782880161388d565b945050602085013567ffffffffffffffff811115613d0f57600080fd5b613d1b878288016137a5565b93509350506040613d2e87828801613707565b91505092959194509250565b60008060408385031215613d4d57600080fd5b6000613d5b8582860161388d565b9250506020613d6c8582860161388d565b9150509250929050565b600080600060608486031215613d8b57600080fd5b6000613d99868287016138a2565b9350506020613daa868287016138a2565b925050604084015167ffffffffffffffff811115613dc757600080fd5b613dd3868287016137ef565b9150509250925092565b6000613de98383613e25565b60208301905092915050565b6000613e018383614021565b60208301905092915050565b6000613e1983836140e1565b60208301905092915050565b613e2e816147cf565b82525050565b613e3d816147cf565b82525050565b6000613e4e826145f0565b613e588185614643565b9350613e63836145c6565b8060005b83811015613e94578151613e7b8882613ddd565b9750613e868361461c565b925050600181019050613e67565b5085935050505092915050565b6000613ead8385614654565b9350613eb8826145d6565b8060005b85811015613ef157613ece82846146a3565b613ed88882613df5565b9750613ee383614629565b925050600181019050613ebc565b5085925050509392505050565b6000613f0a8385614665565b93507f07ffffffffffffffffffffffffffffffffffffffffffffffffffffffffffffff831115613f3957600080fd5b602083029250613f4a83858461483d565b82840190509392505050565b6000613f61826145fb565b613f6b8185614665565b9350613f76836145e0565b8060005b83811015613fa7578151613f8e8882613e0d565b9750613f9983614636565b925050600181019050613f7a565b5085935050505092915050565b613fbd816147e1565b82525050565b6000613fcf8385614676565b9350613fdc83858461483d565b613fe5836149e7565b840190509392505050565b6000613ffb82614606565b6140058185614687565b935061401581856020860161484c565b80840191505092915050565b61402a816147ed565b82525050565b600061403b82614611565b6140458185614692565b935061405581856020860161484c565b61405e816149e7565b840191505092915050565b6000614076601083614692565b9150614081826149f8565b602082019050919050565b6000614099600683614692565b91506140a482614a21565b602082019050919050565b60006140bc600483614692565b91506140c782614a4a565b602082019050919050565b6140db81614817565b82525050565b6140ea81614826565b82525050565b6140f981614826565b82525050565b61410881614830565b82525050565b600061411a8284613ff0565b915081905092915050565b600060208201905061413a6000830184613e34565b92915050565b60006060820190506141556000830186613e34565b6141626020830185613e34565b61416f60408301846140f0565b949350505050565b600060808201905061418c600083018a613e34565b818103602083015261419f81888a613efe565b905081810360408301526141b4818688613efe565b905081810360608301526141c9818486613fc3565b905098975050505050505050565b600060e0820190506141ec600083018a613e34565b6141f960208301896140f0565b61420660408301886140f0565b61421360608301876140f0565b61422060808301866140f0565b61422d60a08301856140f0565b61423a60c08301846140f0565b98975050505050505050565b600060208201905081810360008301526142608184613e43565b905092915050565b600060208201905081810360008301526142828184613f56565b905092915050565b600060408201905081810360008301526142a48185613f56565b90506142b360208301846140f0565b9392505050565b60006020820190506142cf6000830184613fb4565b92915050565b600060208201905081810360008301526142ef8184614030565b905092915050565b6000602082019050818103600083015261431081614069565b9050919050565b600060208201905081810360008301526143308161408c565b9050919050565b60006020820190508181036000830152614350816140af565b9050919050565b600060208201905061436c60008301846140d2565b92915050565b600060208201905061438760008301846140f0565b92915050565b60006040820190506143a260008301856140f0565b6143af6020830184613e34565b9392505050565b60006060820190506143cb60008301866140f0565b6143d86020830185613e34565b6143e56040830184613e34565b949350505050565b600060c08201905061440260008301896140f0565b61440f6020830188613e34565b81810360408301526144218187613f56565b905061443060608301866140f0565b61443d60808301856140f0565b61444a60a08301846140f0565b979650505050505050565b600060408201905061446a60008301866140f0565b818103602083015261447d818486613ea1565b9050949350505050565b600060608201905061449c60008301876140f0565b81810360208301526144af818587613efe565b90506144be6040830184613e34565b95945050505050565b60006040820190506144dc60008301856140f0565b6144e960208301846140f0565b9392505050565b600060608201905061450560008301866140f0565b61451260208301856140f0565b81810360408301526145248184613f56565b9050949350505050565b600060208201905061454360008301846140ff565b92915050565b6000614553614564565b905061455f82826148b1565b919050565b6000604051905090565b600067ffffffffffffffff821115614589576145886149b8565b5b602082029050602081019050919050565b600067ffffffffffffffff8211156145b5576145b46149b8565b5b602082029050602081019050919050565b6000819050602082019050919050565b6000819050919050565b6000819050602082019050919050565b600081519050919050565b600081519050919050565b600081519050919050565b600081519050919050565b6000602082019050919050565b6000602082019050919050565b6000602082019050919050565b600082825260208201905092915050565b600082825260208201905092915050565b600082825260208201905092915050565b600082825260208201905092915050565b600081905092915050565b600082825260208201905092915050565b60006146b26020840184613863565b905092915050565b60006146c582614826565b91506146d083614826565b9250827fffffffffffffffffffffffffffffffffffffffffffffffffffffffffffffffff038211156147055761470461492b565b5b828201905092915050565b600061471b82614826565b915061472683614826565b9250826147365761473561495a565b5b828204905092915050565b600061474c82614826565b915061475783614826565b9250817fffffffffffffffffffffffffffffffffffffffffffffffffffffffffffffffff04831182151516156147905761478f61492b565b5b828202905092915050565b60006147a682614826565b91506147b183614826565b9250828210156147c4576147c361492b565b5b828203905092915050565b60006147da826147f7565b9050919050565b60008115159050919050565b6000819050919050565b600073ffffffffffffffffffffffffffffffffffffffff82169050919050565b600062ffffff82169050919050565b6000819050919050565b600060ff82169050919050565b82818337600083830152505050565b60005b8381101561486a57808201518184015260208101905061484f565b83811115614879576000848401525b50505050565b6000600282049050600182168061489757607f821691505b602082108114156148ab576148aa614989565b5b50919050565b6148ba826149e7565b810181811067ffffffffffffffff821117156148d9576148d86149b8565b5b80604052505050565b60006148ed82614826565b91507fffffffffffffffffffffffffffffffffffffffffffffffffffffffffffffffff8214156149205761491f61492b565b5b600182019050919050565b7f4e487b7100000000000000000000000000000000000000000000000000000000600052601160045260246000fd5b7f4e487b7100000000000000000000000000000000000000000000000000000000600052601260045260246000fd5b7f4e487b7100000000000000000000000000000000000000000000000000000000600052602260045260246000fd5b7f4e487b7100000000000000000000000000000000000000000000000000000000600052604160045260246000fd5b6000601f19601f8301169050919050565b7f45524332303a2062616c203c2076616c00000000000000000000000000000000600082015250565b7f47505f5345540000000000000000000000000000000000000000000000000000600082015250565b7f4c4f434b00000000000000000000000000000000000000000000000000000000600082015250565b614a7c816147cf565b8114614a8757600080fd5b50565b614a93816147ed565b8114614a9e57600080fd5b50565b614aaa81614817565b8114614ab557600080fd5b50565b614ac181614826565b8114614acc57600080fd5b5056fea2646970667358221220c3595ec76205fee83cf47b4b95a1d59c7cf3a89fbb43fa45d49ffde8a193542764736f6c63430008040033",
  "linkReferences": {},
  "deployedLinkReferences": {}
}