{
  "_format": "hh-sol-artifact-1",
  "contractName": "GammaPoolFactory",
  "sourceName": "contracts/GammaPoolFactory.sol",
  "abi": [
    {
      "inputs": [
        {
          "internalType": "address",
          "name": "_feeToSetter",
          "type": "address"
        }
      ],
      "stateMutability": "nonpayable",
      "type": "constructor"
    },
    {
      "inputs": [],
      "name": "DeployFailed",
      "type": "error"
    },
    {
      "inputs": [],
      "name": "Forbidden",
      "type": "error"
    },
    {
      "inputs": [],
      "name": "PoolExists",
      "type": "error"
    },
    {
      "inputs": [],
      "name": "ProtocolExists",
      "type": "error"
    },
    {
      "inputs": [],
      "name": "ProtocolNotSet",
      "type": "error"
    },
    {
      "inputs": [],
      "name": "ProtocolRestricted",
      "type": "error"
    },
    {
      "inputs": [],
      "name": "ZeroProtocol",
      "type": "error"
    },
    {
      "anonymous": false,
      "inputs": [
        {
          "indexed": true,
          "internalType": "address",
          "name": "pool",
          "type": "address"
        },
        {
          "indexed": true,
          "internalType": "address",
          "name": "cfmm",
          "type": "address"
        },
        {
          "indexed": true,
          "internalType": "uint16",
          "name": "protocolId",
          "type": "uint16"
        },
        {
          "indexed": false,
          "internalType": "address",
          "name": "implementation",
          "type": "address"
        },
        {
          "indexed": false,
          "internalType": "uint256",
          "name": "count",
          "type": "uint256"
        }
      ],
      "name": "PoolCreated",
      "type": "event"
    },
    {
      "inputs": [
        {
          "internalType": "address",
          "name": "implementation",
          "type": "address"
        }
      ],
      "name": "addProtocol",
      "outputs": [],
      "stateMutability": "nonpayable",
      "type": "function"
    },
    {
      "inputs": [
        {
          "internalType": "uint256",
          "name": "",
          "type": "uint256"
        }
      ],
      "name": "allPools",
      "outputs": [
        {
          "internalType": "address",
          "name": "",
          "type": "address"
        }
      ],
      "stateMutability": "view",
      "type": "function"
    },
    {
      "inputs": [],
      "name": "allPoolsLength",
      "outputs": [
        {
          "internalType": "uint256",
          "name": "",
          "type": "uint256"
        }
      ],
      "stateMutability": "view",
      "type": "function"
    },
    {
      "inputs": [
        {
          "internalType": "uint16",
          "name": "protocolId",
          "type": "uint16"
        },
        {
          "internalType": "address",
          "name": "cfmm",
          "type": "address"
        },
        {
          "internalType": "address[]",
          "name": "tokens",
          "type": "address[]"
        }
      ],
      "name": "createPool",
      "outputs": [
        {
          "internalType": "address",
          "name": "pool",
          "type": "address"
        }
      ],
      "stateMutability": "nonpayable",
      "type": "function"
    },
    {
      "inputs": [],
      "name": "fee",
      "outputs": [
        {
          "internalType": "uint16",
          "name": "",
          "type": "uint16"
        }
      ],
      "stateMutability": "view",
      "type": "function"
    },
    {
      "inputs": [],
      "name": "feeInfo",
      "outputs": [
        {
          "internalType": "address",
          "name": "_feeTo",
          "type": "address"
        },
        {
          "internalType": "uint256",
          "name": "_fee",
          "type": "uint256"
        }
      ],
      "stateMutability": "view",
      "type": "function"
    },
    {
      "inputs": [],
      "name": "feeTo",
      "outputs": [
        {
          "internalType": "address",
          "name": "",
          "type": "address"
        }
      ],
      "stateMutability": "view",
      "type": "function"
    },
    {
      "inputs": [],
      "name": "feeToSetter",
      "outputs": [
        {
          "internalType": "address",
          "name": "",
          "type": "address"
        }
      ],
      "stateMutability": "view",
      "type": "function"
    },
    {
      "inputs": [
        {
          "internalType": "bytes32",
          "name": "",
          "type": "bytes32"
        }
      ],
      "name": "getPool",
      "outputs": [
        {
          "internalType": "address",
          "name": "",
          "type": "address"
        }
      ],
      "stateMutability": "view",
      "type": "function"
    },
    {
      "inputs": [
        {
          "internalType": "uint16",
          "name": "",
          "type": "uint16"
        }
      ],
      "name": "getProtocol",
      "outputs": [
        {
          "internalType": "address",
          "name": "",
          "type": "address"
        }
      ],
      "stateMutability": "view",
      "type": "function"
    },
    {
      "inputs": [
        {
          "internalType": "uint16",
          "name": "",
          "type": "uint16"
        }
      ],
      "name": "isProtocolRestricted",
      "outputs": [
        {
          "internalType": "bool",
          "name": "",
          "type": "bool"
        }
      ],
      "stateMutability": "view",
      "type": "function"
    },
    {
      "inputs": [],
      "name": "owner",
      "outputs": [
        {
          "internalType": "address",
          "name": "",
          "type": "address"
        }
      ],
      "stateMutability": "view",
      "type": "function"
    },
    {
      "inputs": [
        {
          "internalType": "uint16",
          "name": "protocolId",
          "type": "uint16"
        }
      ],
      "name": "removeProtocol",
      "outputs": [],
      "stateMutability": "nonpayable",
      "type": "function"
    },
    {
      "inputs": [
        {
          "internalType": "uint16",
          "name": "_fee",
          "type": "uint16"
        }
      ],
      "name": "setFee",
      "outputs": [],
      "stateMutability": "nonpayable",
      "type": "function"
    },
    {
      "inputs": [
        {
          "internalType": "address",
          "name": "_feeTo",
          "type": "address"
        }
      ],
      "name": "setFeeTo",
      "outputs": [],
      "stateMutability": "nonpayable",
      "type": "function"
    },
    {
      "inputs": [
        {
          "internalType": "address",
          "name": "_feeToSetter",
          "type": "address"
        }
      ],
      "name": "setFeeToSetter",
      "outputs": [],
      "stateMutability": "nonpayable",
      "type": "function"
    },
    {
      "inputs": [
        {
          "internalType": "uint16",
          "name": "protocolId",
          "type": "uint16"
        },
        {
          "internalType": "bool",
          "name": "isRestricted",
          "type": "bool"
        }
      ],
      "name": "setIsProtocolRestricted",
      "outputs": [],
      "stateMutability": "nonpayable",
      "type": "function"
    }
  ],
  "bytecode": "0x6080604052612710600160006101000a81548161ffff021916908361ffff1602179055503480156200003057600080fd5b506040516200194438038062001944833981810160405281019062000056919062000137565b80600260006101000a81548173ffffffffffffffffffffffffffffffffffffffff021916908373ffffffffffffffffffffffffffffffffffffffff16021790555080600160026101000a81548173ffffffffffffffffffffffffffffffffffffffff021916908373ffffffffffffffffffffffffffffffffffffffff16021790555033600360006101000a81548173ffffffffffffffffffffffffffffffffffffffff021916908373ffffffffffffffffffffffffffffffffffffffff16021790555050620001b1565b600081519050620001318162000197565b92915050565b6000602082840312156200014a57600080fd5b60006200015a8482850162000120565b91505092915050565b6000620001708262000177565b9050919050565b600073ffffffffffffffffffffffffffffffffffffffff82169050919050565b620001a28162000163565b8114620001ae57600080fd5b50565b61178380620001c16000396000f3fe608060405234801561001057600080fd5b506004361061010b5760003560e01c8063995b5aae116100a2578063d7d1e12611610071578063d7d1e126146102a5578063ddca3f43146102d5578063efde4e64146102f3578063f46901ed14610311578063f6c009271461032d5761010b565b8063995b5aae1461021e578063a2e74af61461023d578063b3d5d66b14610259578063d2c7c2a4146102755761010b565b806356f22f8d116100de57806356f22f8d14610198578063771d4c28146101c85780638da5cb5b146101e45780638e005553146102025761010b565b8063017e7e5814610110578063094b74151461012e57806341d1de971461014c578063466e0c0a1461017c575b600080fd5b61011861035d565b6040516101259190611431565b60405180910390f35b610136610383565b6040516101439190611431565b60405180910390f35b610166600480360381019061016191906112ea565b6103a9565b6040516101739190611431565b60405180910390f35b610196600480360381019061019191906111f0565b6103e8565b005b6101b260048036038101906101ad9190611242565b610471565b6040516101bf9190611431565b60405180910390f35b6101e260048036038101906101dd919061115d565b61073e565b005b6101ec610a1d565b6040516101f99190611431565b60405180910390f35b61021c600480360381019061021791906111f0565b610a43565b005b610226610a8e565b6040516102349291906114a5565b60405180910390f35b6102576004803603810190610252919061115d565b610ad1565b005b610273600480360381019061026e91906112ae565b610b40565b005b61028f600480360381019061028a91906111f0565b610ba2565b60405161029c9190611431565b60405180910390f35b6102bf60048036038101906102ba91906111f0565b610bd5565b6040516102cc9190611500565b60405180910390f35b6102dd610bf5565b6040516102ea919061151b565b60405180910390f35b6102fb610c09565b6040516103089190611536565b60405180910390f35b61032b6004803603810190610326919061115d565b610c16565b005b610347600480360381019061034291906111c7565b610c85565b6040516103549190611431565b60405180910390f35b600160029054906101000a900473ffffffffffffffffffffffffffffffffffffffff1681565b600260009054906101000a900473ffffffffffffffffffffffffffffffffffffffff1681565b600681815481106103b957600080fd5b906000526020600020016000915054906101000a900473ffffffffffffffffffffffffffffffffffffffff1681565b610413600360009054906101000a900473ffffffffffffffffffffffffffffffffffffffff16610cb8565b6000600460008361ffff1661ffff16815260200190815260200160002060006101000a81548173ffffffffffffffffffffffffffffffffffffffff021916908373ffffffffffffffffffffffffffffffffffffffff16021790555050565b600061047c85610d20565b6104a885600360009054906101000a900473ffffffffffffffffffffffffffffffffffffffff16610dc5565b6000600460008761ffff1661ffff16815260200190815260200160002060009054906101000a900473ffffffffffffffffffffffffffffffffffffffff16905060008173ffffffffffffffffffffffffffffffffffffffff1663762f324f8686896040518463ffffffff1660e01b8152600401610527939291906114ce565b60006040518083038186803b15801561053f57600080fd5b505afa158015610553573d6000803e3d6000fd5b505050506040513d6000823e3d601f19601f8201168201806040525081019061057c9190611186565b9050600061058a8789610e68565b905061059581610e9b565b61059f8382610f36565b93508373ffffffffffffffffffffffffffffffffffffffff1663946d920488846040518363ffffffff1660e01b81526004016105dc92919061144c565b600060405180830381600087803b1580156105f657600080fd5b505af115801561060a573d6000803e3d6000fd5b505050508360008083815260200190815260200160002060006101000a81548173ffffffffffffffffffffffffffffffffffffffff021916908373ffffffffffffffffffffffffffffffffffffffff1602179055506006849080600181540180825580915050600190039060005260206000200160009091909190916101000a81548173ffffffffffffffffffffffffffffffffffffffff021916908373ffffffffffffffffffffffffffffffffffffffff1602179055508761ffff168773ffffffffffffffffffffffffffffffffffffffff168573ffffffffffffffffffffffffffffffffffffffff167fa7fe820b1195583db141064eed24e76a61598a82b80a95d2915d14bb127581728660068054905060405161072b9291906114a5565b60405180910390a4505050949350505050565b610769600360009054906101000a900473ffffffffffffffffffffffffffffffffffffffff16610cb8565b60008173ffffffffffffffffffffffffffffffffffffffff1663da1f12ab6040518163ffffffff1660e01b815260040160206040518083038186803b1580156107b157600080fd5b505afa1580156107c5573d6000803e3d6000fd5b505050506040513d601f19601f820116820180604052508101906107e99190611219565b61ffff161415610825576040517f3c5113f600000000000000000000000000000000000000000000000000000000815260040160405180910390fd5b600073ffffffffffffffffffffffffffffffffffffffff16600460008373ffffffffffffffffffffffffffffffffffffffff1663da1f12ab6040518163ffffffff1660e01b815260040160206040518083038186803b15801561088757600080fd5b505afa15801561089b573d6000803e3d6000fd5b505050506040513d601f19601f820116820180604052508101906108bf9190611219565b61ffff1661ffff16815260200190815260200160002060009054906101000a900473ffffffffffffffffffffffffffffffffffffffff1673ffffffffffffffffffffffffffffffffffffffff1614610943576040517fe927d03600000000000000000000000000000000000000000000000000000000815260040160405180910390fd5b80600460008373ffffffffffffffffffffffffffffffffffffffff1663da1f12ab6040518163ffffffff1660e01b815260040160206040518083038186803b15801561098e57600080fd5b505afa1580156109a2573d6000803e3d6000fd5b505050506040513d601f19601f820116820180604052508101906109c69190611219565b61ffff1661ffff16815260200190815260200160002060006101000a81548173ffffffffffffffffffffffffffffffffffffffff021916908373ffffffffffffffffffffffffffffffffffffffff16021790555050565b600360009054906101000a900473ffffffffffffffffffffffffffffffffffffffff1681565b610a6e600260009054906101000a900473ffffffffffffffffffffffffffffffffffffffff16610cb8565b80600160006101000a81548161ffff021916908361ffff16021790555050565b600080600160029054906101000a900473ffffffffffffffffffffffffffffffffffffffff169150600160009054906101000a900461ffff1661ffff1690509091565b610afc600260009054906101000a900473ffffffffffffffffffffffffffffffffffffffff16610cb8565b80600260006101000a81548173ffffffffffffffffffffffffffffffffffffffff021916908373ffffffffffffffffffffffffffffffffffffffff16021790555050565b610b6b600360009054906101000a900473ffffffffffffffffffffffffffffffffffffffff16610cb8565b80600560008461ffff1661ffff16815260200190815260200160002060006101000a81548160ff0219169083151502179055505050565b60046020528060005260406000206000915054906101000a900473ffffffffffffffffffffffffffffffffffffffff1681565b60056020528060005260406000206000915054906101000a900460ff1681565b600160009054906101000a900461ffff1681565b6000600680549050905090565b610c41600260009054906101000a900473ffffffffffffffffffffffffffffffffffffffff16610cb8565b80600160026101000a81548173ffffffffffffffffffffffffffffffffffffffff021916908373ffffffffffffffffffffffffffffffffffffffff16021790555050565b60006020528060005260406000206000915054906101000a900473ffffffffffffffffffffffffffffffffffffffff1681565b8073ffffffffffffffffffffffffffffffffffffffff163373ffffffffffffffffffffffffffffffffffffffff1614610d1d576040517fee90c46800000000000000000000000000000000000000000000000000000000815260040160405180910390fd5b50565b600073ffffffffffffffffffffffffffffffffffffffff16600460008361ffff1661ffff16815260200190815260200160002060009054906101000a900473ffffffffffffffffffffffffffffffffffffffff1673ffffffffffffffffffffffffffffffffffffffff161415610dc2576040517fea1bea5000000000000000000000000000000000000000000000000000000000815260040160405180910390fd5b50565b60011515600560008461ffff1661ffff16815260200190815260200160002060009054906101000a900460ff161515148015610e2d57508073ffffffffffffffffffffffffffffffffffffffff163373ffffffffffffffffffffffffffffffffffffffff1614155b15610e64576040517fb383beb100000000000000000000000000000000000000000000000000000000815260040160405180910390fd5b5050565b60008282604051602001610e7d92919061147c565b60405160208183030381529060405280519060200120905092915050565b600073ffffffffffffffffffffffffffffffffffffffff1660008083815260200190815260200160002060009054906101000a900473ffffffffffffffffffffffffffffffffffffffff1673ffffffffffffffffffffffffffffffffffffffff1614610f33576040517ff48e3c2600000000000000000000000000000000000000000000000000000000815260040160405180910390fd5b50565b6000763d602d80600a3d3981f3363d3d373d3d3d363d730000008360601b60e81c176000526e5af43d82803e903d91602b57fd5bf38360781b1760205281603760096000f59050600073ffffffffffffffffffffffffffffffffffffffff168173ffffffffffffffffffffffffffffffffffffffff161415610fe4576040517fb4f5411100000000000000000000000000000000000000000000000000000000815260040160405180910390fd5b92915050565b6000610ffd610ff884611576565b611551565b9050808382526020820190508285602086028201111561101c57600080fd5b60005b8581101561104c5781611032888261106b565b84526020840193506020830192505060018101905061101f565b5050509392505050565b600081359050611065816116da565b92915050565b60008151905061107a816116da565b92915050565b60008083601f84011261109257600080fd5b8235905067ffffffffffffffff8111156110ab57600080fd5b6020830191508360208202830111156110c357600080fd5b9250929050565b600082601f8301126110db57600080fd5b81516110eb848260208601610fea565b91505092915050565b600081359050611103816116f1565b92915050565b60008135905061111881611708565b92915050565b60008135905061112d8161171f565b92915050565b6000815190506111428161171f565b92915050565b60008135905061115781611736565b92915050565b60006020828403121561116f57600080fd5b600061117d84828501611056565b91505092915050565b60006020828403121561119857600080fd5b600082015167ffffffffffffffff8111156111b257600080fd5b6111be848285016110ca565b91505092915050565b6000602082840312156111d957600080fd5b60006111e784828501611109565b91505092915050565b60006020828403121561120257600080fd5b60006112108482850161111e565b91505092915050565b60006020828403121561122b57600080fd5b600061123984828501611133565b91505092915050565b6000806000806060858703121561125857600080fd5b60006112668782880161111e565b945050602061127787828801611056565b935050604085013567ffffffffffffffff81111561129457600080fd5b6112a087828801611080565b925092505092959194509250565b600080604083850312156112c157600080fd5b60006112cf8582860161111e565b92505060206112e0858286016110f4565b9150509250929050565b6000602082840312156112fc57600080fd5b600061130a84828501611148565b91505092915050565b600061131f838361132b565b60208301905092915050565b61133481611609565b82525050565b61134381611609565b82525050565b600061135583856115e1565b9350611360826115a2565b8060005b858110156113995761137682846115f2565b6113808882611313565b975061138b836115c7565b925050600181019050611364565b5085925050509392505050565b60006113b1826115bc565b6113bb81856115e1565b93506113c6836115ac565b8060005b838110156113f75781516113de8882611313565b97506113e9836115d4565b9250506001810190506113ca565b5085935050505092915050565b61140d8161161b565b82525050565b61141c81611631565b82525050565b61142b8161165f565b82525050565b6000602082019050611446600083018461133a565b92915050565b6000604082019050611461600083018561133a565b818103602083015261147381846113a6565b90509392505050565b6000604082019050611491600083018561133a565b61149e6020830184611413565b9392505050565b60006040820190506114ba600083018561133a565b6114c76020830184611422565b9392505050565b600060408201905081810360008301526114e9818587611349565b90506114f8602083018461133a565b949350505050565b60006020820190506115156000830184611404565b92915050565b60006020820190506115306000830184611413565b92915050565b600060208201905061154b6000830184611422565b92915050565b600061155b61156c565b90506115678282611669565b919050565b6000604051905090565b600067ffffffffffffffff8211156115915761159061169a565b5b602082029050602081019050919050565b6000819050919050565b6000819050602082019050919050565b600081519050919050565b6000602082019050919050565b6000602082019050919050565b600082825260208201905092915050565b60006116016020840184611056565b905092915050565b60006116148261163f565b9050919050565b60008115159050919050565b6000819050919050565b600061ffff82169050919050565b600073ffffffffffffffffffffffffffffffffffffffff82169050919050565b6000819050919050565b611672826116c9565b810181811067ffffffffffffffff821117156116915761169061169a565b5b80604052505050565b7f4e487b7100000000000000000000000000000000000000000000000000000000600052604160045260246000fd5b6000601f19601f8301169050919050565b6116e381611609565b81146116ee57600080fd5b50565b6116fa8161161b565b811461170557600080fd5b50565b61171181611627565b811461171c57600080fd5b50565b61172881611631565b811461173357600080fd5b50565b61173f8161165f565b811461174a57600080fd5b5056fea2646970667358221220995f6ff9f2651e3436bced0768a7685f85736fb0abd1a8c88c4b09f53a67c18f64736f6c63430008040033",
  "linkReferences": {},
  "deployedLinkReferences": {}
}